{
  "_format": "hh-sol-artifact-1",
  "contractName": "MyNFT",
  "sourceName": "contracts/NFTContract.sol",
  "abi": [
    {
      "inputs": [
        {
          "internalType": "string",
          "name": "name",
          "type": "string"
        },
        {
          "internalType": "string",
          "name": "symbol",
          "type": "string"
        }
      ],
      "stateMutability": "nonpayable",
      "type": "constructor"
    },
    {
      "inputs": [
        {
          "internalType": "address",
          "name": "sender",
          "type": "address"
        },
        {
          "internalType": "uint256",
          "name": "tokenId",
          "type": "uint256"
        },
        {
          "internalType": "address",
          "name": "owner",
          "type": "address"
        }
      ],
      "name": "ERC721IncorrectOwner",
      "type": "error"
    },
    {
      "inputs": [
        {
          "internalType": "address",
          "name": "operator",
          "type": "address"
        },
        {
          "internalType": "uint256",
          "name": "tokenId",
          "type": "uint256"
        }
      ],
      "name": "ERC721InsufficientApproval",
      "type": "error"
    },
    {
      "inputs": [
        {
          "internalType": "address",
          "name": "approver",
          "type": "address"
        }
      ],
      "name": "ERC721InvalidApprover",
      "type": "error"
    },
    {
      "inputs": [
        {
          "internalType": "address",
          "name": "operator",
          "type": "address"
        }
      ],
      "name": "ERC721InvalidOperator",
      "type": "error"
    },
    {
      "inputs": [
        {
          "internalType": "address",
          "name": "owner",
          "type": "address"
        }
      ],
      "name": "ERC721InvalidOwner",
      "type": "error"
    },
    {
      "inputs": [
        {
          "internalType": "address",
          "name": "receiver",
          "type": "address"
        }
      ],
      "name": "ERC721InvalidReceiver",
      "type": "error"
    },
    {
      "inputs": [
        {
          "internalType": "address",
          "name": "sender",
          "type": "address"
        }
      ],
      "name": "ERC721InvalidSender",
      "type": "error"
    },
    {
      "inputs": [
        {
          "internalType": "uint256",
          "name": "tokenId",
          "type": "uint256"
        }
      ],
      "name": "ERC721NonexistentToken",
      "type": "error"
    },
    {
      "inputs": [
        {
          "internalType": "address",
          "name": "owner",
          "type": "address"
        }
      ],
      "name": "OwnableInvalidOwner",
      "type": "error"
    },
    {
      "inputs": [
        {
          "internalType": "address",
          "name": "account",
          "type": "address"
        }
      ],
      "name": "OwnableUnauthorizedAccount",
      "type": "error"
    },
    {
      "anonymous": false,
      "inputs": [
        {
          "indexed": true,
          "internalType": "address",
          "name": "owner",
          "type": "address"
        },
        {
          "indexed": true,
          "internalType": "address",
          "name": "approved",
          "type": "address"
        },
        {
          "indexed": true,
          "internalType": "uint256",
          "name": "tokenId",
          "type": "uint256"
        }
      ],
      "name": "Approval",
      "type": "event"
    },
    {
      "anonymous": false,
      "inputs": [
        {
          "indexed": true,
          "internalType": "address",
          "name": "owner",
          "type": "address"
        },
        {
          "indexed": true,
          "internalType": "address",
          "name": "operator",
          "type": "address"
        },
        {
          "indexed": false,
          "internalType": "bool",
          "name": "approved",
          "type": "bool"
        }
      ],
      "name": "ApprovalForAll",
      "type": "event"
    },
    {
      "anonymous": false,
      "inputs": [
        {
          "indexed": false,
          "internalType": "uint256",
          "name": "_fromTokenId",
          "type": "uint256"
        },
        {
          "indexed": false,
          "internalType": "uint256",
          "name": "_toTokenId",
          "type": "uint256"
        }
      ],
      "name": "BatchMetadataUpdate",
      "type": "event"
    },
    {
      "anonymous": false,
      "inputs": [
        {
          "indexed": false,
          "internalType": "uint256",
          "name": "_tokenId",
          "type": "uint256"
        }
      ],
      "name": "MetadataUpdate",
      "type": "event"
    },
    {
      "anonymous": false,
      "inputs": [
        {
          "indexed": true,
          "internalType": "address",
          "name": "previousOwner",
          "type": "address"
        },
        {
          "indexed": true,
          "internalType": "address",
          "name": "newOwner",
          "type": "address"
        }
      ],
      "name": "OwnershipTransferred",
      "type": "event"
    },
    {
      "anonymous": false,
      "inputs": [
        {
          "indexed": true,
          "internalType": "address",
          "name": "from",
          "type": "address"
        },
        {
          "indexed": true,
          "internalType": "address",
          "name": "to",
          "type": "address"
        },
        {
          "indexed": true,
          "internalType": "uint256",
          "name": "tokenId",
          "type": "uint256"
        }
      ],
      "name": "Transfer",
      "type": "event"
    },
    {
      "inputs": [
        {
          "internalType": "address",
          "name": "to",
          "type": "address"
        },
        {
          "internalType": "uint256",
          "name": "tokenId",
          "type": "uint256"
        }
      ],
      "name": "approve",
      "outputs": [],
      "stateMutability": "nonpayable",
      "type": "function"
    },
    {
      "inputs": [
        {
          "internalType": "address",
          "name": "owner",
          "type": "address"
        }
      ],
      "name": "balanceOf",
      "outputs": [
        {
          "internalType": "uint256",
          "name": "",
          "type": "uint256"
        }
      ],
      "stateMutability": "view",
      "type": "function"
    },
    {
      "inputs": [
        {
          "internalType": "uint256",
          "name": "tokenId",
          "type": "uint256"
        }
      ],
      "name": "getApproved",
      "outputs": [
        {
          "internalType": "address",
          "name": "",
          "type": "address"
        }
      ],
      "stateMutability": "view",
      "type": "function"
    },
    {
      "inputs": [
        {
          "internalType": "address",
          "name": "owner",
          "type": "address"
        },
        {
          "internalType": "address",
          "name": "operator",
          "type": "address"
        }
      ],
      "name": "isApprovedForAll",
      "outputs": [
        {
          "internalType": "bool",
          "name": "",
          "type": "bool"
        }
      ],
      "stateMutability": "view",
      "type": "function"
    },
    {
      "inputs": [
        {
          "internalType": "uint256",
          "name": "",
          "type": "uint256"
        }
      ],
      "name": "marketplaceCreator",
      "outputs": [
        {
          "internalType": "address",
          "name": "",
          "type": "address"
        }
      ],
      "stateMutability": "view",
      "type": "function"
    },
    {
      "inputs": [
        {
          "internalType": "address",
          "name": "to",
          "type": "address"
        },
        {
          "internalType": "string",
          "name": "tokenURI",
          "type": "string"
        },
        {
          "internalType": "address",
          "name": "marketplace",
          "type": "address"
        }
      ],
      "name": "mintNFT",
      "outputs": [
        {
          "internalType": "uint256",
          "name": "",
          "type": "uint256"
        }
      ],
      "stateMutability": "nonpayable",
      "type": "function"
    },
    {
      "inputs": [],
      "name": "name",
      "outputs": [
        {
          "internalType": "string",
          "name": "",
          "type": "string"
        }
      ],
      "stateMutability": "view",
      "type": "function"
    },
    {
      "inputs": [
        {
          "internalType": "uint256",
          "name": "",
          "type": "uint256"
        }
      ],
      "name": "originalCreator",
      "outputs": [
        {
          "internalType": "address",
          "name": "",
          "type": "address"
        }
      ],
      "stateMutability": "view",
      "type": "function"
    },
    {
      "inputs": [],
      "name": "owner",
      "outputs": [
        {
          "internalType": "address",
          "name": "",
          "type": "address"
        }
      ],
      "stateMutability": "view",
      "type": "function"
    },
    {
      "inputs": [
        {
          "internalType": "uint256",
          "name": "tokenId",
          "type": "uint256"
        }
      ],
      "name": "ownerOf",
      "outputs": [
        {
          "internalType": "address",
          "name": "",
          "type": "address"
        }
      ],
      "stateMutability": "view",
      "type": "function"
    },
    {
      "inputs": [],
      "name": "renounceOwnership",
      "outputs": [],
      "stateMutability": "nonpayable",
      "type": "function"
    },
    {
      "inputs": [
        {
          "internalType": "address",
          "name": "from",
          "type": "address"
        },
        {
          "internalType": "address",
          "name": "to",
          "type": "address"
        },
        {
          "internalType": "uint256",
          "name": "tokenId",
          "type": "uint256"
        }
      ],
      "name": "safeTransferFrom",
      "outputs": [],
      "stateMutability": "nonpayable",
      "type": "function"
    },
    {
      "inputs": [
        {
          "internalType": "address",
          "name": "from",
          "type": "address"
        },
        {
          "internalType": "address",
          "name": "to",
          "type": "address"
        },
        {
          "internalType": "uint256",
          "name": "tokenId",
          "type": "uint256"
        },
        {
          "internalType": "bytes",
          "name": "data",
          "type": "bytes"
        }
      ],
      "name": "safeTransferFrom",
      "outputs": [],
      "stateMutability": "nonpayable",
      "type": "function"
    },
    {
      "inputs": [
        {
          "internalType": "address",
          "name": "operator",
          "type": "address"
        },
        {
          "internalType": "bool",
          "name": "approved",
          "type": "bool"
        }
      ],
      "name": "setApprovalForAll",
      "outputs": [],
      "stateMutability": "nonpayable",
      "type": "function"
    },
    {
      "inputs": [
        {
          "internalType": "bytes4",
          "name": "interfaceId",
          "type": "bytes4"
        }
      ],
      "name": "supportsInterface",
      "outputs": [
        {
          "internalType": "bool",
          "name": "",
          "type": "bool"
        }
      ],
      "stateMutability": "view",
      "type": "function"
    },
    {
      "inputs": [],
      "name": "symbol",
      "outputs": [
        {
          "internalType": "string",
          "name": "",
          "type": "string"
        }
      ],
      "stateMutability": "view",
      "type": "function"
    },
    {
      "inputs": [
        {
          "internalType": "uint256",
          "name": "tokenId",
          "type": "uint256"
        }
      ],
      "name": "tokenURI",
      "outputs": [
        {
          "internalType": "string",
          "name": "",
          "type": "string"
        }
      ],
      "stateMutability": "view",
      "type": "function"
    },
    {
      "inputs": [
        {
          "internalType": "address",
          "name": "from",
          "type": "address"
        },
        {
          "internalType": "address",
          "name": "to",
          "type": "address"
        },
        {
          "internalType": "uint256",
          "name": "tokenId",
          "type": "uint256"
        }
      ],
      "name": "transferFrom",
      "outputs": [],
      "stateMutability": "nonpayable",
      "type": "function"
    },
    {
      "inputs": [
        {
          "internalType": "address",
          "name": "newOwner",
          "type": "address"
        }
      ],
      "name": "transferOwnership",
      "outputs": [],
      "stateMutability": "nonpayable",
      "type": "function"
    }
  ],
  "bytecode": "0x60806040523480156200001157600080fd5b5060405162002f4e38038062002f4e833981810160405281019062000037919062000350565b33828281600090816200004b919062000620565b5080600190816200005d919062000620565b505050600073ffffffffffffffffffffffffffffffffffffffff168173ffffffffffffffffffffffffffffffffffffffff1603620000d55760006040517f1e4fbdf7000000000000000000000000000000000000000000000000000000008152600401620000cc91906200074c565b60405180910390fd5b620000e681620000f760201b60201c565b506000600881905550505062000769565b6000600760009054906101000a900473ffffffffffffffffffffffffffffffffffffffff16905081600760006101000a81548173ffffffffffffffffffffffffffffffffffffffff021916908373ffffffffffffffffffffffffffffffffffffffff1602179055508173ffffffffffffffffffffffffffffffffffffffff168173ffffffffffffffffffffffffffffffffffffffff167f8be0079c531659141344cd1fd0a4f28419497f9722a3daafe3b4186f6b6457e060405160405180910390a35050565b6000604051905090565b600080fd5b600080fd5b600080fd5b600080fd5b6000601f19601f8301169050919050565b7f4e487b7100000000000000000000000000000000000000000000000000000000600052604160045260246000fd5b6200022682620001db565b810181811067ffffffffffffffff82111715620002485762000247620001ec565b5b80604052505050565b60006200025d620001bd565b90506200026b82826200021b565b919050565b600067ffffffffffffffff8211156200028e576200028d620001ec565b5b6200029982620001db565b9050602081019050919050565b60005b83811015620002c6578082015181840152602081019050620002a9565b60008484015250505050565b6000620002e9620002e38462000270565b62000251565b905082815260208101848484011115620003085762000307620001d6565b5b62000315848285620002a6565b509392505050565b600082601f830112620003355762000334620001d1565b5b815162000347848260208601620002d2565b91505092915050565b600080604083850312156200036a5762000369620001c7565b5b600083015167ffffffffffffffff8111156200038b576200038a620001cc565b5b62000399858286016200031d565b925050602083015167ffffffffffffffff811115620003bd57620003bc620001cc565b5b620003cb858286016200031d565b9150509250929050565b600081519050919050565b7f4e487b7100000000000000000000000000000000000000000000000000000000600052602260045260246000fd5b600060028204905060018216806200042857607f821691505b6020821081036200043e576200043d620003e0565b5b50919050565b60008190508160005260206000209050919050565b60006020601f8301049050919050565b600082821b905092915050565b600060088302620004a87fffffffffffffffffffffffffffffffffffffffffffffffffffffffffffffffff8262000469565b620004b4868362000469565b95508019841693508086168417925050509392505050565b6000819050919050565b6000819050919050565b600062000501620004fb620004f584620004cc565b620004d6565b620004cc565b9050919050565b6000819050919050565b6200051d83620004e0565b620005356200052c8262000508565b84845462000476565b825550505050565b600090565b6200054c6200053d565b6200055981848462000512565b505050565b5b8181101562000581576200057560008262000542565b6001810190506200055f565b5050565b601f821115620005d0576200059a8162000444565b620005a58462000459565b81016020851015620005b5578190505b620005cd620005c48562000459565b8301826200055e565b50505b505050565b600082821c905092915050565b6000620005f560001984600802620005d5565b1980831691505092915050565b6000620006108383620005e2565b9150826002028217905092915050565b6200062b82620003d5565b67ffffffffffffffff811115620006475762000646620001ec565b5b6200065382546200040f565b6200066082828562000585565b600060209050601f83116001811462000698576000841562000683578287015190505b6200068f858262000602565b865550620006ff565b601f198416620006a88662000444565b60005b82811015620006d257848901518255600182019150602085019450602081019050620006ab565b86831015620006f25784890151620006ee601f891682620005e2565b8355505b6001600288020188555050505b505050505050565b600073ffffffffffffffffffffffffffffffffffffffff82169050919050565b6000620007348262000707565b9050919050565b620007468162000727565b82525050565b60006020820190506200076360008301846200073b565b92915050565b6127d580620007796000396000f3fe608060405234801561001057600080fd5b50600436106101215760003560e01c80638da5cb5b116100ad578063d01f7a8711610071578063d01f7a8714610306578063e985e9c514610336578063f2fde38b14610366578063f5955f3214610382578063fdcac3a7146103b257610121565b80638da5cb5b1461026257806395d89b4114610280578063a22cb4651461029e578063b88d4fde146102ba578063c87b56dd146102d657610121565b806323b872dd116100f457806323b872dd146101c057806342842e0e146101dc5780636352211e146101f857806370a0823114610228578063715018a61461025857610121565b806301ffc9a71461012657806306fdde0314610156578063081812fc14610174578063095ea7b3146101a4575b600080fd5b610140600480360381019061013b9190611c1a565b6103e2565b60405161014d9190611c62565b60405180910390f35b61015e610443565b60405161016b9190611d0d565b60405180910390f35b61018e60048036038101906101899190611d65565b6104d5565b60405161019b9190611dd3565b60405180910390f35b6101be60048036038101906101b99190611e1a565b6104f1565b005b6101da60048036038101906101d59190611e5a565b610507565b005b6101f660048036038101906101f19190611e5a565b610609565b005b610212600480360381019061020d9190611d65565b610629565b60405161021f9190611dd3565b60405180910390f35b610242600480360381019061023d9190611ead565b61063b565b60405161024f9190611ee9565b60405180910390f35b6102606106f5565b005b61026a610709565b6040516102779190611dd3565b60405180910390f35b610288610733565b6040516102959190611d0d565b60405180910390f35b6102b860048036038101906102b39190611f30565b6107c5565b005b6102d460048036038101906102cf91906120a5565b6107db565b005b6102f060048036038101906102eb9190611d65565b610800565b6040516102fd9190611d0d565b60405180910390f35b610320600480360381019061031b91906121c9565b610913565b60405161032d9190611ee9565b60405180910390f35b610350600480360381019061034b9190612238565b6109ff565b60405161035d9190611c62565b60405180910390f35b610380600480360381019061037b9190611ead565b610a93565b005b61039c60048036038101906103979190611d65565b610b19565b6040516103a99190611dd3565b60405180910390f35b6103cc60048036038101906103c79190611d65565b610b4c565b6040516103d99190611dd3565b60405180910390f35b6000634906490660e01b7bffffffffffffffffffffffffffffffffffffffffffffffffffffffff1916827bffffffffffffffffffffffffffffffffffffffffffffffffffffffff1916148061043c575061043b82610b7f565b5b9050919050565b606060008054610452906122a7565b80601f016020809104026020016040519081016040528092919081815260200182805461047e906122a7565b80156104cb5780601f106104a0576101008083540402835291602001916104cb565b820191906000526020600020905b8154815290600101906020018083116104ae57829003601f168201915b5050505050905090565b60006104e082610c61565b506104ea82610ce9565b9050919050565b61050382826104fe610d26565b610d2e565b5050565b600073ffffffffffffffffffffffffffffffffffffffff168273ffffffffffffffffffffffffffffffffffffffff16036105795760006040517f64a0ae920000000000000000000000000000000000000000000000000000000081526004016105709190611dd3565b60405180910390fd5b600061058d8383610588610d26565b610d40565b90508373ffffffffffffffffffffffffffffffffffffffff168173ffffffffffffffffffffffffffffffffffffffff1614610603578382826040517f64283d7b0000000000000000000000000000000000000000000000000000000081526004016105fa939291906122d8565b60405180910390fd5b50505050565b610624838383604051806020016040528060008152506107db565b505050565b600061063482610c61565b9050919050565b60008073ffffffffffffffffffffffffffffffffffffffff168273ffffffffffffffffffffffffffffffffffffffff16036106ae5760006040517f89c62b640000000000000000000000000000000000000000000000000000000081526004016106a59190611dd3565b60405180910390fd5b600360008373ffffffffffffffffffffffffffffffffffffffff1673ffffffffffffffffffffffffffffffffffffffff168152602001908152602001600020549050919050565b6106fd610f5a565b6107076000610fe1565b565b6000600760009054906101000a900473ffffffffffffffffffffffffffffffffffffffff16905090565b606060018054610742906122a7565b80601f016020809104026020016040519081016040528092919081815260200182805461076e906122a7565b80156107bb5780601f10610790576101008083540402835291602001916107bb565b820191906000526020600020905b81548152906001019060200180831161079e57829003601f168201915b5050505050905090565b6107d76107d0610d26565b83836110a7565b5050565b6107e6848484610507565b6107fa6107f1610d26565b85858585611216565b50505050565b606061080b82610c61565b50600060066000848152602001908152602001600020805461082c906122a7565b80601f0160208091040260200160405190810160405280929190818152602001828054610858906122a7565b80156108a55780601f1061087a576101008083540402835291602001916108a5565b820191906000526020600020905b81548152906001019060200180831161088857829003601f168201915b5050505050905060006108b66113c7565b905060008151036108cb57819250505061090e565b6000825111156109005780826040516020016108e892919061234b565b6040516020818303038152906040529250505061090e565b610909846113de565b925050505b919050565b600061091d610f5a565b60006008549050600860008154809291906109379061239e565b91905055506109468582611447565b6109508185611540565b826009600083815260200190815260200160002060006101000a81548173ffffffffffffffffffffffffffffffffffffffff021916908373ffffffffffffffffffffffffffffffffffffffff16021790555084600a600083815260200190815260200160002060006101000a81548173ffffffffffffffffffffffffffffffffffffffff021916908373ffffffffffffffffffffffffffffffffffffffff160217905550809150509392505050565b6000600560008473ffffffffffffffffffffffffffffffffffffffff1673ffffffffffffffffffffffffffffffffffffffff16815260200190815260200160002060008373ffffffffffffffffffffffffffffffffffffffff1673ffffffffffffffffffffffffffffffffffffffff16815260200190815260200160002060009054906101000a900460ff16905092915050565b610a9b610f5a565b600073ffffffffffffffffffffffffffffffffffffffff168173ffffffffffffffffffffffffffffffffffffffff1603610b0d5760006040517f1e4fbdf7000000000000000000000000000000000000000000000000000000008152600401610b049190611dd3565b60405180910390fd5b610b1681610fe1565b50565b600a6020528060005260406000206000915054906101000a900473ffffffffffffffffffffffffffffffffffffffff1681565b60096020528060005260406000206000915054906101000a900473ffffffffffffffffffffffffffffffffffffffff1681565b60007f80ac58cd000000000000000000000000000000000000000000000000000000007bffffffffffffffffffffffffffffffffffffffffffffffffffffffff1916827bffffffffffffffffffffffffffffffffffffffffffffffffffffffff19161480610c4a57507f5b5e139f000000000000000000000000000000000000000000000000000000007bffffffffffffffffffffffffffffffffffffffffffffffffffffffff1916827bffffffffffffffffffffffffffffffffffffffffffffffffffffffff1916145b80610c5a5750610c598261159c565b5b9050919050565b600080610c6d83611606565b9050600073ffffffffffffffffffffffffffffffffffffffff168173ffffffffffffffffffffffffffffffffffffffff1603610ce057826040517f7e273289000000000000000000000000000000000000000000000000000000008152600401610cd79190611ee9565b60405180910390fd5b80915050919050565b60006004600083815260200190815260200160002060009054906101000a900473ffffffffffffffffffffffffffffffffffffffff169050919050565b600033905090565b610d3b8383836001611643565b505050565b600080610d4c84611606565b9050600073ffffffffffffffffffffffffffffffffffffffff168373ffffffffffffffffffffffffffffffffffffffff1614610d8e57610d8d818486611808565b5b600073ffffffffffffffffffffffffffffffffffffffff168173ffffffffffffffffffffffffffffffffffffffff1614610e1f57610dd0600085600080611643565b6001600360008373ffffffffffffffffffffffffffffffffffffffff1673ffffffffffffffffffffffffffffffffffffffff168152602001908152602001600020600082825403925050819055505b600073ffffffffffffffffffffffffffffffffffffffff168573ffffffffffffffffffffffffffffffffffffffff1614610ea2576001600360008773ffffffffffffffffffffffffffffffffffffffff1673ffffffffffffffffffffffffffffffffffffffff168152602001908152602001600020600082825401925050819055505b846002600086815260200190815260200160002060006101000a81548173ffffffffffffffffffffffffffffffffffffffff021916908373ffffffffffffffffffffffffffffffffffffffff160217905550838573ffffffffffffffffffffffffffffffffffffffff168273ffffffffffffffffffffffffffffffffffffffff167fddf252ad1be2c89b69c2b068fc378daa952ba7f163c4a11628f55a4df523b3ef60405160405180910390a4809150509392505050565b610f62610d26565b73ffffffffffffffffffffffffffffffffffffffff16610f80610709565b73ffffffffffffffffffffffffffffffffffffffff1614610fdf57610fa3610d26565b6040517f118cdaa7000000000000000000000000000000000000000000000000000000008152600401610fd69190611dd3565b60405180910390fd5b565b6000600760009054906101000a900473ffffffffffffffffffffffffffffffffffffffff16905081600760006101000a81548173ffffffffffffffffffffffffffffffffffffffff021916908373ffffffffffffffffffffffffffffffffffffffff1602179055508173ffffffffffffffffffffffffffffffffffffffff168173ffffffffffffffffffffffffffffffffffffffff167f8be0079c531659141344cd1fd0a4f28419497f9722a3daafe3b4186f6b6457e060405160405180910390a35050565b600073ffffffffffffffffffffffffffffffffffffffff168273ffffffffffffffffffffffffffffffffffffffff160361111857816040517f5b08ba1800000000000000000000000000000000000000000000000000000000815260040161110f9190611dd3565b60405180910390fd5b80600560008573ffffffffffffffffffffffffffffffffffffffff1673ffffffffffffffffffffffffffffffffffffffff16815260200190815260200160002060008473ffffffffffffffffffffffffffffffffffffffff1673ffffffffffffffffffffffffffffffffffffffff16815260200190815260200160002060006101000a81548160ff0219169083151502179055508173ffffffffffffffffffffffffffffffffffffffff168373ffffffffffffffffffffffffffffffffffffffff167f17307eab39ab6107e8899845ad3d59bd9653f200f220920489ca2b5937696c31836040516112099190611c62565b60405180910390a3505050565b60008373ffffffffffffffffffffffffffffffffffffffff163b11156113c0578273ffffffffffffffffffffffffffffffffffffffff1663150b7a02868685856040518563ffffffff1660e01b8152600401611275949392919061243b565b6020604051808303816000875af19250505080156112b157506040513d601f19601f820116820180604052508101906112ae919061249c565b60015b611335573d80600081146112e1576040519150601f19603f3d011682016040523d82523d6000602084013e6112e6565b606091505b50600081510361132d57836040517f64a0ae920000000000000000000000000000000000000000000000000000000081526004016113249190611dd3565b60405180910390fd5b805181602001fd5b63150b7a0260e01b7bffffffffffffffffffffffffffffffffffffffffffffffffffffffff1916817bffffffffffffffffffffffffffffffffffffffffffffffffffffffff1916146113be57836040517f64a0ae920000000000000000000000000000000000000000000000000000000081526004016113b59190611dd3565b60405180910390fd5b505b5050505050565b606060405180602001604052806000815250905090565b60606113e982610c61565b5060006113f46113c7565b90506000815111611414576040518060200160405280600081525061143f565b8061141e846118cc565b60405160200161142f92919061234b565b6040516020818303038152906040525b915050919050565b600073ffffffffffffffffffffffffffffffffffffffff168273ffffffffffffffffffffffffffffffffffffffff16036114b95760006040517f64a0ae920000000000000000000000000000000000000000000000000000000081526004016114b09190611dd3565b60405180910390fd5b60006114c783836000610d40565b9050600073ffffffffffffffffffffffffffffffffffffffff168173ffffffffffffffffffffffffffffffffffffffff161461153b5760006040517f73c6ac6e0000000000000000000000000000000000000000000000000000000081526004016115329190611dd3565b60405180910390fd5b505050565b806006600084815260200190815260200160002090816115609190612675565b507ff8e1a15aba9398e019f0b49df1a4fde98ee17ae345cb5f6b5e2c27f5033e8ce7826040516115909190611ee9565b60405180910390a15050565b60007f01ffc9a7000000000000000000000000000000000000000000000000000000007bffffffffffffffffffffffffffffffffffffffffffffffffffffffff1916827bffffffffffffffffffffffffffffffffffffffffffffffffffffffff1916149050919050565b60006002600083815260200190815260200160002060009054906101000a900473ffffffffffffffffffffffffffffffffffffffff169050919050565b808061167c5750600073ffffffffffffffffffffffffffffffffffffffff168273ffffffffffffffffffffffffffffffffffffffff1614155b156117b057600061168c84610c61565b9050600073ffffffffffffffffffffffffffffffffffffffff168373ffffffffffffffffffffffffffffffffffffffff16141580156116f757508273ffffffffffffffffffffffffffffffffffffffff168173ffffffffffffffffffffffffffffffffffffffff1614155b801561170a575061170881846109ff565b155b1561174c57826040517fa9fbf51f0000000000000000000000000000000000000000000000000000000081526004016117439190611dd3565b60405180910390fd5b81156117ae57838573ffffffffffffffffffffffffffffffffffffffff168273ffffffffffffffffffffffffffffffffffffffff167f8c5be1e5ebec7d5bd14f71427d1e84f3dd0314c0f7b2291e5b200ac8c7c3b92560405160405180910390a45b505b836004600085815260200190815260200160002060006101000a81548173ffffffffffffffffffffffffffffffffffffffff021916908373ffffffffffffffffffffffffffffffffffffffff16021790555050505050565b61181383838361199a565b6118c757600073ffffffffffffffffffffffffffffffffffffffff168373ffffffffffffffffffffffffffffffffffffffff160361188857806040517f7e27328900000000000000000000000000000000000000000000000000000000815260040161187f9190611ee9565b60405180910390fd5b81816040517f177e802f0000000000000000000000000000000000000000000000000000000081526004016118be929190612747565b60405180910390fd5b505050565b6060600060016118db84611a5b565b01905060008167ffffffffffffffff8111156118fa576118f9611f7a565b5b6040519080825280601f01601f19166020018201604052801561192c5781602001600182028036833780820191505090505b509050600082602001820190505b60011561198f578080600190039150507f3031323334353637383961626364656600000000000000000000000000000000600a86061a8153600a858161198357611982612770565b5b0494506000850361193a575b819350505050919050565b60008073ffffffffffffffffffffffffffffffffffffffff168373ffffffffffffffffffffffffffffffffffffffff1614158015611a5257508273ffffffffffffffffffffffffffffffffffffffff168473ffffffffffffffffffffffffffffffffffffffff161480611a135750611a1284846109ff565b5b80611a5157508273ffffffffffffffffffffffffffffffffffffffff16611a3983610ce9565b73ffffffffffffffffffffffffffffffffffffffff16145b5b90509392505050565b600080600090507a184f03e93ff9f4daa797ed6e38ed64bf6a1f0100000000000000008310611ab9577a184f03e93ff9f4daa797ed6e38ed64bf6a1f0100000000000000008381611aaf57611aae612770565b5b0492506040810190505b6d04ee2d6d415b85acef81000000008310611af6576d04ee2d6d415b85acef81000000008381611aec57611aeb612770565b5b0492506020810190505b662386f26fc100008310611b2557662386f26fc100008381611b1b57611b1a612770565b5b0492506010810190505b6305f5e1008310611b4e576305f5e1008381611b4457611b43612770565b5b0492506008810190505b6127108310611b73576127108381611b6957611b68612770565b5b0492506004810190505b60648310611b965760648381611b8c57611b8b612770565b5b0492506002810190505b600a8310611ba5576001810190505b80915050919050565b6000604051905090565b600080fd5b600080fd5b60007fffffffff0000000000000000000000000000000000000000000000000000000082169050919050565b611bf781611bc2565b8114611c0257600080fd5b50565b600081359050611c1481611bee565b92915050565b600060208284031215611c3057611c2f611bb8565b5b6000611c3e84828501611c05565b91505092915050565b60008115159050919050565b611c5c81611c47565b82525050565b6000602082019050611c776000830184611c53565b92915050565b600081519050919050565b600082825260208201905092915050565b60005b83811015611cb7578082015181840152602081019050611c9c565b60008484015250505050565b6000601f19601f8301169050919050565b6000611cdf82611c7d565b611ce98185611c88565b9350611cf9818560208601611c99565b611d0281611cc3565b840191505092915050565b60006020820190508181036000830152611d278184611cd4565b905092915050565b6000819050919050565b611d4281611d2f565b8114611d4d57600080fd5b50565b600081359050611d5f81611d39565b92915050565b600060208284031215611d7b57611d7a611bb8565b5b6000611d8984828501611d50565b91505092915050565b600073ffffffffffffffffffffffffffffffffffffffff82169050919050565b6000611dbd82611d92565b9050919050565b611dcd81611db2565b82525050565b6000602082019050611de86000830184611dc4565b92915050565b611df781611db2565b8114611e0257600080fd5b50565b600081359050611e1481611dee565b92915050565b60008060408385031215611e3157611e30611bb8565b5b6000611e3f85828601611e05565b9250506020611e5085828601611d50565b9150509250929050565b600080600060608486031215611e7357611e72611bb8565b5b6000611e8186828701611e05565b9350506020611e9286828701611e05565b9250506040611ea386828701611d50565b9150509250925092565b600060208284031215611ec357611ec2611bb8565b5b6000611ed184828501611e05565b91505092915050565b611ee381611d2f565b82525050565b6000602082019050611efe6000830184611eda565b92915050565b611f0d81611c47565b8114611f1857600080fd5b50565b600081359050611f2a81611f04565b92915050565b60008060408385031215611f4757611f46611bb8565b5b6000611f5585828601611e05565b9250506020611f6685828601611f1b565b9150509250929050565b600080fd5b600080fd5b7f4e487b7100000000000000000000000000000000000000000000000000000000600052604160045260246000fd5b611fb282611cc3565b810181811067ffffffffffffffff82111715611fd157611fd0611f7a565b5b80604052505050565b6000611fe4611bae565b9050611ff08282611fa9565b919050565b600067ffffffffffffffff8211156120105761200f611f7a565b5b61201982611cc3565b9050602081019050919050565b82818337600083830152505050565b600061204861204384611ff5565b611fda565b90508281526020810184848401111561206457612063611f75565b5b61206f848285612026565b509392505050565b600082601f83011261208c5761208b611f70565b5b813561209c848260208601612035565b91505092915050565b600080600080608085870312156120bf576120be611bb8565b5b60006120cd87828801611e05565b94505060206120de87828801611e05565b93505060406120ef87828801611d50565b925050606085013567ffffffffffffffff8111156121105761210f611bbd565b5b61211c87828801612077565b91505092959194509250565b600067ffffffffffffffff82111561214357612142611f7a565b5b61214c82611cc3565b9050602081019050919050565b600061216c61216784612128565b611fda565b90508281526020810184848401111561218857612187611f75565b5b612193848285612026565b509392505050565b600082601f8301126121b0576121af611f70565b5b81356121c0848260208601612159565b91505092915050565b6000806000606084860312156121e2576121e1611bb8565b5b60006121f086828701611e05565b935050602084013567ffffffffffffffff81111561221157612210611bbd565b5b61221d8682870161219b565b925050604061222e86828701611e05565b9150509250925092565b6000806040838503121561224f5761224e611bb8565b5b600061225d85828601611e05565b925050602061226e85828601611e05565b9150509250929050565b7f4e487b7100000000000000000000000000000000000000000000000000000000600052602260045260246000fd5b600060028204905060018216806122bf57607f821691505b6020821081036122d2576122d1612278565b5b50919050565b60006060820190506122ed6000830186611dc4565b6122fa6020830185611eda565b6123076040830184611dc4565b949350505050565b600081905092915050565b600061232582611c7d565b61232f818561230f565b935061233f818560208601611c99565b80840191505092915050565b6000612357828561231a565b9150612363828461231a565b91508190509392505050565b7f4e487b7100000000000000000000000000000000000000000000000000000000600052601160045260246000fd5b60006123a982611d2f565b91507fffffffffffffffffffffffffffffffffffffffffffffffffffffffffffffffff82036123db576123da61236f565b5b600182019050919050565b600081519050919050565b600082825260208201905092915050565b600061240d826123e6565b61241781856123f1565b9350612427818560208601611c99565b61243081611cc3565b840191505092915050565b60006080820190506124506000830187611dc4565b61245d6020830186611dc4565b61246a6040830185611eda565b818103606083015261247c8184612402565b905095945050505050565b60008151905061249681611bee565b92915050565b6000602082840312156124b2576124b1611bb8565b5b60006124c084828501612487565b91505092915050565b60008190508160005260206000209050919050565b60006020601f8301049050919050565b600082821b905092915050565b60006008830261252b7fffffffffffffffffffffffffffffffffffffffffffffffffffffffffffffffff826124ee565b61253586836124ee565b95508019841693508086168417925050509392505050565b6000819050919050565b600061257261256d61256884611d2f565b61254d565b611d2f565b9050919050565b6000819050919050565b61258c83612557565b6125a061259882612579565b8484546124fb565b825550505050565b600090565b6125b56125a8565b6125c0818484612583565b505050565b5b818110156125e4576125d96000826125ad565b6001810190506125c6565b5050565b601f821115612629576125fa816124c9565b612603846124de565b81016020851015612612578190505b61262661261e856124de565b8301826125c5565b50505b505050565b600082821c905092915050565b600061264c6000198460080261262e565b1980831691505092915050565b6000612665838361263b565b9150826002028217905092915050565b61267e82611c7d565b67ffffffffffffffff81111561269757612696611f7a565b5b6126a182546122a7565b6126ac8282856125e8565b600060209050601f8311600181146126df57600084156126cd578287015190505b6126d78582612659565b86555061273f565b601f1984166126ed866124c9565b60005b82811015612715578489015182556001820191506020850194506020810190506126f0565b86831015612732578489015161272e601f89168261263b565b8355505b6001600288020188555050505b505050505050565b600060408201905061275c6000830185611dc4565b6127696020830184611eda565b9392505050565b7f4e487b7100000000000000000000000000000000000000000000000000000000600052601260045260246000fdfea26469706673582212205cf8d94f13240ec7b3964f6df5f128172fe41014f9feead3e9e03c7d90beb3a164736f6c63430008140033",
  "linkReferences": {},
  "deployedLinkReferences": {}
}