{
  "_format": "hh-sol-artifact-1",
  "contractName": "MyNFT",
  "sourceName": "contracts/NFTContract.sol",
  "abi": [
    {
      "inputs": [
        {
          "internalType": "string",
          "name": "name",
          "type": "string"
        },
        {
          "internalType": "string",
          "name": "symbol",
          "type": "string"
        }
      ],
      "stateMutability": "nonpayable",
      "type": "constructor"
    },
    {
      "inputs": [
        {
          "internalType": "address",
          "name": "sender",
          "type": "address"
        },
        {
          "internalType": "uint256",
          "name": "tokenId",
          "type": "uint256"
        },
        {
          "internalType": "address",
          "name": "owner",
          "type": "address"
        }
      ],
      "name": "ERC721IncorrectOwner",
      "type": "error"
    },
    {
      "inputs": [
        {
          "internalType": "address",
          "name": "operator",
          "type": "address"
        },
        {
          "internalType": "uint256",
          "name": "tokenId",
          "type": "uint256"
        }
      ],
      "name": "ERC721InsufficientApproval",
      "type": "error"
    },
    {
      "inputs": [
        {
          "internalType": "address",
          "name": "approver",
          "type": "address"
        }
      ],
      "name": "ERC721InvalidApprover",
      "type": "error"
    },
    {
      "inputs": [
        {
          "internalType": "address",
          "name": "operator",
          "type": "address"
        }
      ],
      "name": "ERC721InvalidOperator",
      "type": "error"
    },
    {
      "inputs": [
        {
          "internalType": "address",
          "name": "owner",
          "type": "address"
        }
      ],
      "name": "ERC721InvalidOwner",
      "type": "error"
    },
    {
      "inputs": [
        {
          "internalType": "address",
          "name": "receiver",
          "type": "address"
        }
      ],
      "name": "ERC721InvalidReceiver",
      "type": "error"
    },
    {
      "inputs": [
        {
          "internalType": "address",
          "name": "sender",
          "type": "address"
        }
      ],
      "name": "ERC721InvalidSender",
      "type": "error"
    },
    {
      "inputs": [
        {
          "internalType": "uint256",
          "name": "tokenId",
          "type": "uint256"
        }
      ],
      "name": "ERC721NonexistentToken",
      "type": "error"
    },
    {
      "inputs": [
        {
          "internalType": "address",
          "name": "owner",
          "type": "address"
        }
      ],
      "name": "OwnableInvalidOwner",
      "type": "error"
    },
    {
      "inputs": [
        {
          "internalType": "address",
          "name": "account",
          "type": "address"
        }
      ],
      "name": "OwnableUnauthorizedAccount",
      "type": "error"
    },
    {
      "anonymous": false,
      "inputs": [
        {
          "indexed": true,
          "internalType": "address",
          "name": "owner",
          "type": "address"
        },
        {
          "indexed": true,
          "internalType": "address",
          "name": "approved",
          "type": "address"
        },
        {
          "indexed": true,
          "internalType": "uint256",
          "name": "tokenId",
          "type": "uint256"
        }
      ],
      "name": "Approval",
      "type": "event"
    },
    {
      "anonymous": false,
      "inputs": [
        {
          "indexed": true,
          "internalType": "address",
          "name": "owner",
          "type": "address"
        },
        {
          "indexed": true,
          "internalType": "address",
          "name": "operator",
          "type": "address"
        },
        {
          "indexed": false,
          "internalType": "bool",
          "name": "approved",
          "type": "bool"
        }
      ],
      "name": "ApprovalForAll",
      "type": "event"
    },
    {
      "anonymous": false,
      "inputs": [
        {
          "indexed": false,
          "internalType": "uint256",
          "name": "_fromTokenId",
          "type": "uint256"
        },
        {
          "indexed": false,
          "internalType": "uint256",
          "name": "_toTokenId",
          "type": "uint256"
        }
      ],
      "name": "BatchMetadataUpdate",
      "type": "event"
    },
    {
      "anonymous": false,
      "inputs": [
        {
          "indexed": false,
          "internalType": "uint256",
          "name": "_tokenId",
          "type": "uint256"
        }
      ],
      "name": "MetadataUpdate",
      "type": "event"
    },
    {
      "anonymous": false,
      "inputs": [
        {
          "indexed": true,
          "internalType": "address",
          "name": "previousOwner",
          "type": "address"
        },
        {
          "indexed": true,
          "internalType": "address",
          "name": "newOwner",
          "type": "address"
        }
      ],
      "name": "OwnershipTransferred",
      "type": "event"
    },
    {
      "anonymous": false,
      "inputs": [
        {
          "indexed": true,
          "internalType": "address",
          "name": "from",
          "type": "address"
        },
        {
          "indexed": true,
          "internalType": "address",
          "name": "to",
          "type": "address"
        },
        {
          "indexed": true,
          "internalType": "uint256",
          "name": "tokenId",
          "type": "uint256"
        }
      ],
      "name": "Transfer",
      "type": "event"
    },
    {
      "inputs": [
        {
          "internalType": "address",
          "name": "to",
          "type": "address"
        },
        {
          "internalType": "uint256",
          "name": "tokenId",
          "type": "uint256"
        }
      ],
      "name": "approve",
      "outputs": [],
      "stateMutability": "nonpayable",
      "type": "function"
    },
    {
      "inputs": [
        {
          "internalType": "address",
          "name": "owner",
          "type": "address"
        }
      ],
      "name": "balanceOf",
      "outputs": [
        {
          "internalType": "uint256",
          "name": "",
          "type": "uint256"
        }
      ],
      "stateMutability": "view",
      "type": "function"
    },
    {
      "inputs": [
        {
          "internalType": "uint256",
          "name": "tokenId",
          "type": "uint256"
        }
      ],
      "name": "getApproved",
      "outputs": [
        {
          "internalType": "address",
          "name": "",
          "type": "address"
        }
      ],
      "stateMutability": "view",
      "type": "function"
    },
    {
      "inputs": [
        {
          "internalType": "address",
          "name": "owner",
          "type": "address"
        },
        {
          "internalType": "address",
          "name": "operator",
          "type": "address"
        }
      ],
      "name": "isApprovedForAll",
      "outputs": [
        {
          "internalType": "bool",
          "name": "",
          "type": "bool"
        }
      ],
      "stateMutability": "view",
      "type": "function"
    },
    {
      "inputs": [
        {
          "internalType": "uint256",
          "name": "",
          "type": "uint256"
        }
      ],
      "name": "marketplaceCreator",
      "outputs": [
        {
          "internalType": "address",
          "name": "",
          "type": "address"
        }
      ],
      "stateMutability": "view",
      "type": "function"
    },
    {
      "inputs": [
        {
          "internalType": "address",
          "name": "to",
          "type": "address"
        },
        {
          "internalType": "string",
          "name": "tokenURI",
          "type": "string"
        },
        {
          "internalType": "address",
          "name": "marketplace",
          "type": "address"
        }
      ],
      "name": "mintNFT",
      "outputs": [
        {
          "internalType": "uint256",
          "name": "",
          "type": "uint256"
        }
      ],
      "stateMutability": "nonpayable",
      "type": "function"
    },
    {
      "inputs": [],
      "name": "name",
      "outputs": [
        {
          "internalType": "string",
          "name": "",
          "type": "string"
        }
      ],
      "stateMutability": "view",
      "type": "function"
    },
    {
      "inputs": [],
      "name": "owner",
      "outputs": [
        {
          "internalType": "address",
          "name": "",
          "type": "address"
        }
      ],
      "stateMutability": "view",
      "type": "function"
    },
    {
      "inputs": [
        {
          "internalType": "uint256",
          "name": "tokenId",
          "type": "uint256"
        }
      ],
      "name": "ownerOf",
      "outputs": [
        {
          "internalType": "address",
          "name": "",
          "type": "address"
        }
      ],
      "stateMutability": "view",
      "type": "function"
    },
    {
      "inputs": [],
      "name": "renounceOwnership",
      "outputs": [],
      "stateMutability": "nonpayable",
      "type": "function"
    },
    {
      "inputs": [
        {
          "internalType": "address",
          "name": "from",
          "type": "address"
        },
        {
          "internalType": "address",
          "name": "to",
          "type": "address"
        },
        {
          "internalType": "uint256",
          "name": "tokenId",
          "type": "uint256"
        }
      ],
      "name": "safeTransferFrom",
      "outputs": [],
      "stateMutability": "nonpayable",
      "type": "function"
    },
    {
      "inputs": [
        {
          "internalType": "address",
          "name": "from",
          "type": "address"
        },
        {
          "internalType": "address",
          "name": "to",
          "type": "address"
        },
        {
          "internalType": "uint256",
          "name": "tokenId",
          "type": "uint256"
        },
        {
          "internalType": "bytes",
          "name": "data",
          "type": "bytes"
        }
      ],
      "name": "safeTransferFrom",
      "outputs": [],
      "stateMutability": "nonpayable",
      "type": "function"
    },
    {
      "inputs": [
        {
          "internalType": "address",
          "name": "operator",
          "type": "address"
        },
        {
          "internalType": "bool",
          "name": "approved",
          "type": "bool"
        }
      ],
      "name": "setApprovalForAll",
      "outputs": [],
      "stateMutability": "nonpayable",
      "type": "function"
    },
    {
      "inputs": [
        {
          "internalType": "bytes4",
          "name": "interfaceId",
          "type": "bytes4"
        }
      ],
      "name": "supportsInterface",
      "outputs": [
        {
          "internalType": "bool",
          "name": "",
          "type": "bool"
        }
      ],
      "stateMutability": "view",
      "type": "function"
    },
    {
      "inputs": [],
      "name": "symbol",
      "outputs": [
        {
          "internalType": "string",
          "name": "",
          "type": "string"
        }
      ],
      "stateMutability": "view",
      "type": "function"
    },
    {
      "inputs": [
        {
          "internalType": "uint256",
          "name": "tokenId",
          "type": "uint256"
        }
      ],
      "name": "tokenURI",
      "outputs": [
        {
          "internalType": "string",
          "name": "",
          "type": "string"
        }
      ],
      "stateMutability": "view",
      "type": "function"
    },
    {
      "inputs": [
        {
          "internalType": "address",
          "name": "from",
          "type": "address"
        },
        {
          "internalType": "address",
          "name": "to",
          "type": "address"
        },
        {
          "internalType": "uint256",
          "name": "tokenId",
          "type": "uint256"
        }
      ],
      "name": "transferFrom",
      "outputs": [],
      "stateMutability": "nonpayable",
      "type": "function"
    },
    {
      "inputs": [
        {
          "internalType": "address",
          "name": "newOwner",
          "type": "address"
        }
      ],
      "name": "transferOwnership",
      "outputs": [],
      "stateMutability": "nonpayable",
      "type": "function"
    }
  ],
  "bytecode": "0x60806040523480156200001157600080fd5b5060405162002e8e38038062002e8e833981810160405281019062000037919062000350565b33828281600090816200004b919062000620565b5080600190816200005d919062000620565b505050600073ffffffffffffffffffffffffffffffffffffffff168173ffffffffffffffffffffffffffffffffffffffff1603620000d55760006040517f1e4fbdf7000000000000000000000000000000000000000000000000000000008152600401620000cc91906200074c565b60405180910390fd5b620000e681620000f760201b60201c565b506000600881905550505062000769565b6000600760009054906101000a900473ffffffffffffffffffffffffffffffffffffffff16905081600760006101000a81548173ffffffffffffffffffffffffffffffffffffffff021916908373ffffffffffffffffffffffffffffffffffffffff1602179055508173ffffffffffffffffffffffffffffffffffffffff168173ffffffffffffffffffffffffffffffffffffffff167f8be0079c531659141344cd1fd0a4f28419497f9722a3daafe3b4186f6b6457e060405160405180910390a35050565b6000604051905090565b600080fd5b600080fd5b600080fd5b600080fd5b6000601f19601f8301169050919050565b7f4e487b7100000000000000000000000000000000000000000000000000000000600052604160045260246000fd5b6200022682620001db565b810181811067ffffffffffffffff82111715620002485762000247620001ec565b5b80604052505050565b60006200025d620001bd565b90506200026b82826200021b565b919050565b600067ffffffffffffffff8211156200028e576200028d620001ec565b5b6200029982620001db565b9050602081019050919050565b60005b83811015620002c6578082015181840152602081019050620002a9565b60008484015250505050565b6000620002e9620002e38462000270565b62000251565b905082815260208101848484011115620003085762000307620001d6565b5b62000315848285620002a6565b509392505050565b600082601f830112620003355762000334620001d1565b5b815162000347848260208601620002d2565b91505092915050565b600080604083850312156200036a5762000369620001c7565b5b600083015167ffffffffffffffff8111156200038b576200038a620001cc565b5b62000399858286016200031d565b925050602083015167ffffffffffffffff811115620003bd57620003bc620001cc565b5b620003cb858286016200031d565b9150509250929050565b600081519050919050565b7f4e487b7100000000000000000000000000000000000000000000000000000000600052602260045260246000fd5b600060028204905060018216806200042857607f821691505b6020821081036200043e576200043d620003e0565b5b50919050565b60008190508160005260206000209050919050565b60006020601f8301049050919050565b600082821b905092915050565b600060088302620004a87fffffffffffffffffffffffffffffffffffffffffffffffffffffffffffffffff8262000469565b620004b4868362000469565b95508019841693508086168417925050509392505050565b6000819050919050565b6000819050919050565b600062000501620004fb620004f584620004cc565b620004d6565b620004cc565b9050919050565b6000819050919050565b6200051d83620004e0565b620005356200052c8262000508565b84845462000476565b825550505050565b600090565b6200054c6200053d565b6200055981848462000512565b505050565b5b8181101562000581576200057560008262000542565b6001810190506200055f565b5050565b601f821115620005d0576200059a8162000444565b620005a58462000459565b81016020851015620005b5578190505b620005cd620005c48562000459565b8301826200055e565b50505b505050565b600082821c905092915050565b6000620005f560001984600802620005d5565b1980831691505092915050565b6000620006108383620005e2565b9150826002028217905092915050565b6200062b82620003d5565b67ffffffffffffffff811115620006475762000646620001ec565b5b6200065382546200040f565b6200066082828562000585565b600060209050601f83116001811462000698576000841562000683578287015190505b6200068f858262000602565b865550620006ff565b601f198416620006a88662000444565b60005b82811015620006d257848901518255600182019150602085019450602081019050620006ab565b86831015620006f25784890151620006ee601f891682620005e2565b8355505b6001600288020188555050505b505050505050565b600073ffffffffffffffffffffffffffffffffffffffff82169050919050565b6000620007348262000707565b9050919050565b620007468162000727565b82525050565b60006020820190506200076360008301846200073b565b92915050565b61271580620007796000396000f3fe608060405234801561001057600080fd5b50600436106101165760003560e01c80638da5cb5b116100a2578063c87b56dd11610071578063c87b56dd146102cb578063d01f7a87146102fb578063e985e9c51461032b578063f2fde38b1461035b578063fdcac3a71461037757610116565b80638da5cb5b1461025757806395d89b4114610275578063a22cb46514610293578063b88d4fde146102af57610116565b806323b872dd116100e957806323b872dd146101b557806342842e0e146101d15780636352211e146101ed57806370a082311461021d578063715018a61461024d57610116565b806301ffc9a71461011b57806306fdde031461014b578063081812fc14610169578063095ea7b314610199575b600080fd5b61013560048036038101906101309190611b5a565b6103a7565b6040516101429190611ba2565b60405180910390f35b610153610408565b6040516101609190611c4d565b60405180910390f35b610183600480360381019061017e9190611ca5565b61049a565b6040516101909190611d13565b60405180910390f35b6101b360048036038101906101ae9190611d5a565b6104b6565b005b6101cf60048036038101906101ca9190611d9a565b6104cc565b005b6101eb60048036038101906101e69190611d9a565b6105ce565b005b61020760048036038101906102029190611ca5565b6105ee565b6040516102149190611d13565b60405180910390f35b61023760048036038101906102329190611ded565b610600565b6040516102449190611e29565b60405180910390f35b6102556106ba565b005b61025f6106ce565b60405161026c9190611d13565b60405180910390f35b61027d6106f8565b60405161028a9190611c4d565b60405180910390f35b6102ad60048036038101906102a89190611e70565b61078a565b005b6102c960048036038101906102c49190611fe5565b6107a0565b005b6102e560048036038101906102e09190611ca5565b6107c5565b6040516102f29190611c4d565b60405180910390f35b61031560048036038101906103109190612109565b6108d8565b6040516103229190611e29565b60405180910390f35b61034560048036038101906103409190612178565b610972565b6040516103529190611ba2565b60405180910390f35b61037560048036038101906103709190611ded565b610a06565b005b610391600480360381019061038c9190611ca5565b610a8c565b60405161039e9190611d13565b60405180910390f35b6000634906490660e01b7bffffffffffffffffffffffffffffffffffffffffffffffffffffffff1916827bffffffffffffffffffffffffffffffffffffffffffffffffffffffff19161480610401575061040082610abf565b5b9050919050565b606060008054610417906121e7565b80601f0160208091040260200160405190810160405280929190818152602001828054610443906121e7565b80156104905780601f1061046557610100808354040283529160200191610490565b820191906000526020600020905b81548152906001019060200180831161047357829003601f168201915b5050505050905090565b60006104a582610ba1565b506104af82610c29565b9050919050565b6104c882826104c3610c66565b610c6e565b5050565b600073ffffffffffffffffffffffffffffffffffffffff168273ffffffffffffffffffffffffffffffffffffffff160361053e5760006040517f64a0ae920000000000000000000000000000000000000000000000000000000081526004016105359190611d13565b60405180910390fd5b6000610552838361054d610c66565b610c80565b90508373ffffffffffffffffffffffffffffffffffffffff168173ffffffffffffffffffffffffffffffffffffffff16146105c8578382826040517f64283d7b0000000000000000000000000000000000000000000000000000000081526004016105bf93929190612218565b60405180910390fd5b50505050565b6105e9838383604051806020016040528060008152506107a0565b505050565b60006105f982610ba1565b9050919050565b60008073ffffffffffffffffffffffffffffffffffffffff168273ffffffffffffffffffffffffffffffffffffffff16036106735760006040517f89c62b6400000000000000000000000000000000000000000000000000000000815260040161066a9190611d13565b60405180910390fd5b600360008373ffffffffffffffffffffffffffffffffffffffff1673ffffffffffffffffffffffffffffffffffffffff168152602001908152602001600020549050919050565b6106c2610e9a565b6106cc6000610f21565b565b6000600760009054906101000a900473ffffffffffffffffffffffffffffffffffffffff16905090565b606060018054610707906121e7565b80601f0160208091040260200160405190810160405280929190818152602001828054610733906121e7565b80156107805780601f1061075557610100808354040283529160200191610780565b820191906000526020600020905b81548152906001019060200180831161076357829003601f168201915b5050505050905090565b61079c610795610c66565b8383610fe7565b5050565b6107ab8484846104cc565b6107bf6107b6610c66565b85858585611156565b50505050565b60606107d082610ba1565b5060006006600084815260200190815260200160002080546107f1906121e7565b80601f016020809104026020016040519081016040528092919081815260200182805461081d906121e7565b801561086a5780601f1061083f5761010080835404028352916020019161086a565b820191906000526020600020905b81548152906001019060200180831161084d57829003601f168201915b50505050509050600061087b611307565b905060008151036108905781925050506108d3565b6000825111156108c55780826040516020016108ad92919061228b565b604051602081830303815290604052925050506108d3565b6108ce8461131e565b925050505b919050565b60006108e2610e9a565b60006008549050600860008154809291906108fc906122de565b919050555061090b8582611387565b6109158185611480565b826009600083815260200190815260200160002060006101000a81548173ffffffffffffffffffffffffffffffffffffffff021916908373ffffffffffffffffffffffffffffffffffffffff160217905550809150509392505050565b6000600560008473ffffffffffffffffffffffffffffffffffffffff1673ffffffffffffffffffffffffffffffffffffffff16815260200190815260200160002060008373ffffffffffffffffffffffffffffffffffffffff1673ffffffffffffffffffffffffffffffffffffffff16815260200190815260200160002060009054906101000a900460ff16905092915050565b610a0e610e9a565b600073ffffffffffffffffffffffffffffffffffffffff168173ffffffffffffffffffffffffffffffffffffffff1603610a805760006040517f1e4fbdf7000000000000000000000000000000000000000000000000000000008152600401610a779190611d13565b60405180910390fd5b610a8981610f21565b50565b60096020528060005260406000206000915054906101000a900473ffffffffffffffffffffffffffffffffffffffff1681565b60007f80ac58cd000000000000000000000000000000000000000000000000000000007bffffffffffffffffffffffffffffffffffffffffffffffffffffffff1916827bffffffffffffffffffffffffffffffffffffffffffffffffffffffff19161480610b8a57507f5b5e139f000000000000000000000000000000000000000000000000000000007bffffffffffffffffffffffffffffffffffffffffffffffffffffffff1916827bffffffffffffffffffffffffffffffffffffffffffffffffffffffff1916145b80610b9a5750610b99826114dc565b5b9050919050565b600080610bad83611546565b9050600073ffffffffffffffffffffffffffffffffffffffff168173ffffffffffffffffffffffffffffffffffffffff1603610c2057826040517f7e273289000000000000000000000000000000000000000000000000000000008152600401610c179190611e29565b60405180910390fd5b80915050919050565b60006004600083815260200190815260200160002060009054906101000a900473ffffffffffffffffffffffffffffffffffffffff169050919050565b600033905090565b610c7b8383836001611583565b505050565b600080610c8c84611546565b9050600073ffffffffffffffffffffffffffffffffffffffff168373ffffffffffffffffffffffffffffffffffffffff1614610cce57610ccd818486611748565b5b600073ffffffffffffffffffffffffffffffffffffffff168173ffffffffffffffffffffffffffffffffffffffff1614610d5f57610d10600085600080611583565b6001600360008373ffffffffffffffffffffffffffffffffffffffff1673ffffffffffffffffffffffffffffffffffffffff168152602001908152602001600020600082825403925050819055505b600073ffffffffffffffffffffffffffffffffffffffff168573ffffffffffffffffffffffffffffffffffffffff1614610de2576001600360008773ffffffffffffffffffffffffffffffffffffffff1673ffffffffffffffffffffffffffffffffffffffff168152602001908152602001600020600082825401925050819055505b846002600086815260200190815260200160002060006101000a81548173ffffffffffffffffffffffffffffffffffffffff021916908373ffffffffffffffffffffffffffffffffffffffff160217905550838573ffffffffffffffffffffffffffffffffffffffff168273ffffffffffffffffffffffffffffffffffffffff167fddf252ad1be2c89b69c2b068fc378daa952ba7f163c4a11628f55a4df523b3ef60405160405180910390a4809150509392505050565b610ea2610c66565b73ffffffffffffffffffffffffffffffffffffffff16610ec06106ce565b73ffffffffffffffffffffffffffffffffffffffff1614610f1f57610ee3610c66565b6040517f118cdaa7000000000000000000000000000000000000000000000000000000008152600401610f169190611d13565b60405180910390fd5b565b6000600760009054906101000a900473ffffffffffffffffffffffffffffffffffffffff16905081600760006101000a81548173ffffffffffffffffffffffffffffffffffffffff021916908373ffffffffffffffffffffffffffffffffffffffff1602179055508173ffffffffffffffffffffffffffffffffffffffff168173ffffffffffffffffffffffffffffffffffffffff167f8be0079c531659141344cd1fd0a4f28419497f9722a3daafe3b4186f6b6457e060405160405180910390a35050565b600073ffffffffffffffffffffffffffffffffffffffff168273ffffffffffffffffffffffffffffffffffffffff160361105857816040517f5b08ba1800000000000000000000000000000000000000000000000000000000815260040161104f9190611d13565b60405180910390fd5b80600560008573ffffffffffffffffffffffffffffffffffffffff1673ffffffffffffffffffffffffffffffffffffffff16815260200190815260200160002060008473ffffffffffffffffffffffffffffffffffffffff1673ffffffffffffffffffffffffffffffffffffffff16815260200190815260200160002060006101000a81548160ff0219169083151502179055508173ffffffffffffffffffffffffffffffffffffffff168373ffffffffffffffffffffffffffffffffffffffff167f17307eab39ab6107e8899845ad3d59bd9653f200f220920489ca2b5937696c31836040516111499190611ba2565b60405180910390a3505050565b60008373ffffffffffffffffffffffffffffffffffffffff163b1115611300578273ffffffffffffffffffffffffffffffffffffffff1663150b7a02868685856040518563ffffffff1660e01b81526004016111b5949392919061237b565b6020604051808303816000875af19250505080156111f157506040513d601f19601f820116820180604052508101906111ee91906123dc565b60015b611275573d8060008114611221576040519150601f19603f3d011682016040523d82523d6000602084013e611226565b606091505b50600081510361126d57836040517f64a0ae920000000000000000000000000000000000000000000000000000000081526004016112649190611d13565b60405180910390fd5b805181602001fd5b63150b7a0260e01b7bffffffffffffffffffffffffffffffffffffffffffffffffffffffff1916817bffffffffffffffffffffffffffffffffffffffffffffffffffffffff1916146112fe57836040517f64a0ae920000000000000000000000000000000000000000000000000000000081526004016112f59190611d13565b60405180910390fd5b505b5050505050565b606060405180602001604052806000815250905090565b606061132982610ba1565b506000611334611307565b90506000815111611354576040518060200160405280600081525061137f565b8061135e8461180c565b60405160200161136f92919061228b565b6040516020818303038152906040525b915050919050565b600073ffffffffffffffffffffffffffffffffffffffff168273ffffffffffffffffffffffffffffffffffffffff16036113f95760006040517f64a0ae920000000000000000000000000000000000000000000000000000000081526004016113f09190611d13565b60405180910390fd5b600061140783836000610c80565b9050600073ffffffffffffffffffffffffffffffffffffffff168173ffffffffffffffffffffffffffffffffffffffff161461147b5760006040517f73c6ac6e0000000000000000000000000000000000000000000000000000000081526004016114729190611d13565b60405180910390fd5b505050565b806006600084815260200190815260200160002090816114a091906125b5565b507ff8e1a15aba9398e019f0b49df1a4fde98ee17ae345cb5f6b5e2c27f5033e8ce7826040516114d09190611e29565b60405180910390a15050565b60007f01ffc9a7000000000000000000000000000000000000000000000000000000007bffffffffffffffffffffffffffffffffffffffffffffffffffffffff1916827bffffffffffffffffffffffffffffffffffffffffffffffffffffffff1916149050919050565b60006002600083815260200190815260200160002060009054906101000a900473ffffffffffffffffffffffffffffffffffffffff169050919050565b80806115bc5750600073ffffffffffffffffffffffffffffffffffffffff168273ffffffffffffffffffffffffffffffffffffffff1614155b156116f05760006115cc84610ba1565b9050600073ffffffffffffffffffffffffffffffffffffffff168373ffffffffffffffffffffffffffffffffffffffff161415801561163757508273ffffffffffffffffffffffffffffffffffffffff168173ffffffffffffffffffffffffffffffffffffffff1614155b801561164a57506116488184610972565b155b1561168c57826040517fa9fbf51f0000000000000000000000000000000000000000000000000000000081526004016116839190611d13565b60405180910390fd5b81156116ee57838573ffffffffffffffffffffffffffffffffffffffff168273ffffffffffffffffffffffffffffffffffffffff167f8c5be1e5ebec7d5bd14f71427d1e84f3dd0314c0f7b2291e5b200ac8c7c3b92560405160405180910390a45b505b836004600085815260200190815260200160002060006101000a81548173ffffffffffffffffffffffffffffffffffffffff021916908373ffffffffffffffffffffffffffffffffffffffff16021790555050505050565b6117538383836118da565b61180757600073ffffffffffffffffffffffffffffffffffffffff168373ffffffffffffffffffffffffffffffffffffffff16036117c857806040517f7e2732890000000000000000000000000000000000000000000000000000000081526004016117bf9190611e29565b60405180910390fd5b81816040517f177e802f0000000000000000000000000000000000000000000000000000000081526004016117fe929190612687565b60405180910390fd5b505050565b60606000600161181b8461199b565b01905060008167ffffffffffffffff81111561183a57611839611eba565b5b6040519080825280601f01601f19166020018201604052801561186c5781602001600182028036833780820191505090505b509050600082602001820190505b6001156118cf578080600190039150507f3031323334353637383961626364656600000000000000000000000000000000600a86061a8153600a85816118c3576118c26126b0565b5b0494506000850361187a575b819350505050919050565b60008073ffffffffffffffffffffffffffffffffffffffff168373ffffffffffffffffffffffffffffffffffffffff161415801561199257508273ffffffffffffffffffffffffffffffffffffffff168473ffffffffffffffffffffffffffffffffffffffff16148061195357506119528484610972565b5b8061199157508273ffffffffffffffffffffffffffffffffffffffff1661197983610c29565b73ffffffffffffffffffffffffffffffffffffffff16145b5b90509392505050565b600080600090507a184f03e93ff9f4daa797ed6e38ed64bf6a1f01000000000000000083106119f9577a184f03e93ff9f4daa797ed6e38ed64bf6a1f01000000000000000083816119ef576119ee6126b0565b5b0492506040810190505b6d04ee2d6d415b85acef81000000008310611a36576d04ee2d6d415b85acef81000000008381611a2c57611a2b6126b0565b5b0492506020810190505b662386f26fc100008310611a6557662386f26fc100008381611a5b57611a5a6126b0565b5b0492506010810190505b6305f5e1008310611a8e576305f5e1008381611a8457611a836126b0565b5b0492506008810190505b6127108310611ab3576127108381611aa957611aa86126b0565b5b0492506004810190505b60648310611ad65760648381611acc57611acb6126b0565b5b0492506002810190505b600a8310611ae5576001810190505b80915050919050565b6000604051905090565b600080fd5b600080fd5b60007fffffffff0000000000000000000000000000000000000000000000000000000082169050919050565b611b3781611b02565b8114611b4257600080fd5b50565b600081359050611b5481611b2e565b92915050565b600060208284031215611b7057611b6f611af8565b5b6000611b7e84828501611b45565b91505092915050565b60008115159050919050565b611b9c81611b87565b82525050565b6000602082019050611bb76000830184611b93565b92915050565b600081519050919050565b600082825260208201905092915050565b60005b83811015611bf7578082015181840152602081019050611bdc565b60008484015250505050565b6000601f19601f8301169050919050565b6000611c1f82611bbd565b611c298185611bc8565b9350611c39818560208601611bd9565b611c4281611c03565b840191505092915050565b60006020820190508181036000830152611c678184611c14565b905092915050565b6000819050919050565b611c8281611c6f565b8114611c8d57600080fd5b50565b600081359050611c9f81611c79565b92915050565b600060208284031215611cbb57611cba611af8565b5b6000611cc984828501611c90565b91505092915050565b600073ffffffffffffffffffffffffffffffffffffffff82169050919050565b6000611cfd82611cd2565b9050919050565b611d0d81611cf2565b82525050565b6000602082019050611d286000830184611d04565b92915050565b611d3781611cf2565b8114611d4257600080fd5b50565b600081359050611d5481611d2e565b92915050565b60008060408385031215611d7157611d70611af8565b5b6000611d7f85828601611d45565b9250506020611d9085828601611c90565b9150509250929050565b600080600060608486031215611db357611db2611af8565b5b6000611dc186828701611d45565b9350506020611dd286828701611d45565b9250506040611de386828701611c90565b9150509250925092565b600060208284031215611e0357611e02611af8565b5b6000611e1184828501611d45565b91505092915050565b611e2381611c6f565b82525050565b6000602082019050611e3e6000830184611e1a565b92915050565b611e4d81611b87565b8114611e5857600080fd5b50565b600081359050611e6a81611e44565b92915050565b60008060408385031215611e8757611e86611af8565b5b6000611e9585828601611d45565b9250506020611ea685828601611e5b565b9150509250929050565b600080fd5b600080fd5b7f4e487b7100000000000000000000000000000000000000000000000000000000600052604160045260246000fd5b611ef282611c03565b810181811067ffffffffffffffff82111715611f1157611f10611eba565b5b80604052505050565b6000611f24611aee565b9050611f308282611ee9565b919050565b600067ffffffffffffffff821115611f5057611f4f611eba565b5b611f5982611c03565b9050602081019050919050565b82818337600083830152505050565b6000611f88611f8384611f35565b611f1a565b905082815260208101848484011115611fa457611fa3611eb5565b5b611faf848285611f66565b509392505050565b600082601f830112611fcc57611fcb611eb0565b5b8135611fdc848260208601611f75565b91505092915050565b60008060008060808587031215611fff57611ffe611af8565b5b600061200d87828801611d45565b945050602061201e87828801611d45565b935050604061202f87828801611c90565b925050606085013567ffffffffffffffff8111156120505761204f611afd565b5b61205c87828801611fb7565b91505092959194509250565b600067ffffffffffffffff82111561208357612082611eba565b5b61208c82611c03565b9050602081019050919050565b60006120ac6120a784612068565b611f1a565b9050828152602081018484840111156120c8576120c7611eb5565b5b6120d3848285611f66565b509392505050565b600082601f8301126120f0576120ef611eb0565b5b8135612100848260208601612099565b91505092915050565b60008060006060848603121561212257612121611af8565b5b600061213086828701611d45565b935050602084013567ffffffffffffffff81111561215157612150611afd565b5b61215d868287016120db565b925050604061216e86828701611d45565b9150509250925092565b6000806040838503121561218f5761218e611af8565b5b600061219d85828601611d45565b92505060206121ae85828601611d45565b9150509250929050565b7f4e487b7100000000000000000000000000000000000000000000000000000000600052602260045260246000fd5b600060028204905060018216806121ff57607f821691505b602082108103612212576122116121b8565b5b50919050565b600060608201905061222d6000830186611d04565b61223a6020830185611e1a565b6122476040830184611d04565b949350505050565b600081905092915050565b600061226582611bbd565b61226f818561224f565b935061227f818560208601611bd9565b80840191505092915050565b6000612297828561225a565b91506122a3828461225a565b91508190509392505050565b7f4e487b7100000000000000000000000000000000000000000000000000000000600052601160045260246000fd5b60006122e982611c6f565b91507fffffffffffffffffffffffffffffffffffffffffffffffffffffffffffffffff820361231b5761231a6122af565b5b600182019050919050565b600081519050919050565b600082825260208201905092915050565b600061234d82612326565b6123578185612331565b9350612367818560208601611bd9565b61237081611c03565b840191505092915050565b60006080820190506123906000830187611d04565b61239d6020830186611d04565b6123aa6040830185611e1a565b81810360608301526123bc8184612342565b905095945050505050565b6000815190506123d681611b2e565b92915050565b6000602082840312156123f2576123f1611af8565b5b6000612400848285016123c7565b91505092915050565b60008190508160005260206000209050919050565b60006020601f8301049050919050565b600082821b905092915050565b60006008830261246b7fffffffffffffffffffffffffffffffffffffffffffffffffffffffffffffffff8261242e565b612475868361242e565b95508019841693508086168417925050509392505050565b6000819050919050565b60006124b26124ad6124a884611c6f565b61248d565b611c6f565b9050919050565b6000819050919050565b6124cc83612497565b6124e06124d8826124b9565b84845461243b565b825550505050565b600090565b6124f56124e8565b6125008184846124c3565b505050565b5b81811015612524576125196000826124ed565b600181019050612506565b5050565b601f8211156125695761253a81612409565b6125438461241e565b81016020851015612552578190505b61256661255e8561241e565b830182612505565b50505b505050565b600082821c905092915050565b600061258c6000198460080261256e565b1980831691505092915050565b60006125a5838361257b565b9150826002028217905092915050565b6125be82611bbd565b67ffffffffffffffff8111156125d7576125d6611eba565b5b6125e182546121e7565b6125ec828285612528565b600060209050601f83116001811461261f576000841561260d578287015190505b6126178582612599565b86555061267f565b601f19841661262d86612409565b60005b8281101561265557848901518255600182019150602085019450602081019050612630565b86831015612672578489015161266e601f89168261257b565b8355505b6001600288020188555050505b505050505050565b600060408201905061269c6000830185611d04565b6126a96020830184611e1a565b9392505050565b7f4e487b7100000000000000000000000000000000000000000000000000000000600052601260045260246000fdfea26469706673582212202407cb26d7f5d414b436629babd8cf52eceb3244ea63f783397f596a4cca87cd64736f6c63430008140033",
  "linkReferences": {},
  "deployedLinkReferences": {}
}