{
  "_format": "hh-sol-artifact-1",
  "contractName": "NFTMarketplace",
  "sourceName": "contracts/NFTContract.sol",
  "abi": [
    {
      "inputs": [
        {
          "internalType": "address",
          "name": "_nftContractAddress",
          "type": "address"
        },
        {
          "internalType": "uint256",
          "name": "_listingPrice",
          "type": "uint256"
        }
      ],
      "stateMutability": "nonpayable",
      "type": "constructor"
    },
    {
      "inputs": [
        {
          "internalType": "address",
          "name": "owner",
          "type": "address"
        }
      ],
      "name": "OwnableInvalidOwner",
      "type": "error"
    },
    {
      "inputs": [
        {
          "internalType": "address",
          "name": "account",
          "type": "address"
        }
      ],
      "name": "OwnableUnauthorizedAccount",
      "type": "error"
    },
    {
      "inputs": [],
      "name": "ReentrancyGuardReentrantCall",
      "type": "error"
    },
    {
      "anonymous": false,
      "inputs": [
        {
          "indexed": true,
          "internalType": "uint256",
          "name": "tokenId",
          "type": "uint256"
        },
        {
          "indexed": true,
          "internalType": "address",
          "name": "winner",
          "type": "address"
        },
        {
          "indexed": false,
          "internalType": "uint256",
          "name": "finalPrice",
          "type": "uint256"
        }
      ],
      "name": "AuctionEnded",
      "type": "event"
    },
    {
      "anonymous": false,
      "inputs": [
        {
          "indexed": true,
          "internalType": "uint256",
          "name": "tokenId",
          "type": "uint256"
        },
        {
          "indexed": true,
          "internalType": "address",
          "name": "seller",
          "type": "address"
        },
        {
          "indexed": false,
          "internalType": "uint256",
          "name": "minBid",
          "type": "uint256"
        },
        {
          "indexed": false,
          "internalType": "uint256",
          "name": "endTime",
          "type": "uint256"
        }
      ],
      "name": "AuctionStarted",
      "type": "event"
    },
    {
      "anonymous": false,
      "inputs": [
        {
          "indexed": true,
          "internalType": "uint256",
          "name": "tokenId",
          "type": "uint256"
        },
        {
          "indexed": true,
          "internalType": "address",
          "name": "bidder",
          "type": "address"
        },
        {
          "indexed": false,
          "internalType": "uint256",
          "name": "amount",
          "type": "uint256"
        }
      ],
      "name": "BidPlaced",
      "type": "event"
    },
    {
      "anonymous": false,
      "inputs": [
        {
          "indexed": true,
          "internalType": "uint256",
          "name": "tokenId",
          "type": "uint256"
        },
        {
          "indexed": true,
          "internalType": "address",
          "name": "commenter",
          "type": "address"
        },
        {
          "indexed": false,
          "internalType": "string",
          "name": "content",
          "type": "string"
        },
        {
          "indexed": false,
          "internalType": "uint8",
          "name": "rating",
          "type": "uint8"
        },
        {
          "indexed": false,
          "internalType": "uint256",
          "name": "timestamp",
          "type": "uint256"
        }
      ],
      "name": "CommentAdded",
      "type": "event"
    },
    {
      "anonymous": false,
      "inputs": [
        {
          "indexed": true,
          "internalType": "uint256",
          "name": "tokenId",
          "type": "uint256"
        },
        {
          "indexed": false,
          "internalType": "uint256",
          "name": "newLikeCount",
          "type": "uint256"
        }
      ],
      "name": "LikeIncremented",
      "type": "event"
    },
    {
      "anonymous": false,
      "inputs": [
        {
          "indexed": false,
          "internalType": "uint256",
          "name": "newListingPrice",
          "type": "uint256"
        }
      ],
      "name": "ListingPriceUpdated",
      "type": "event"
    },
    {
      "anonymous": false,
      "inputs": [
        {
          "indexed": true,
          "internalType": "uint256",
          "name": "tokenId",
          "type": "uint256"
        },
        {
          "indexed": true,
          "internalType": "address",
          "name": "creator",
          "type": "address"
        },
        {
          "indexed": false,
          "internalType": "string",
          "name": "tokenURI",
          "type": "string"
        },
        {
          "indexed": false,
          "internalType": "string",
          "name": "category",
          "type": "string"
        },
        {
          "indexed": false,
          "internalType": "string",
          "name": "collection",
          "type": "string"
        },
        {
          "indexed": false,
          "internalType": "uint256",
          "name": "royaltyBasisPoints",
          "type": "uint256"
        },
        {
          "indexed": false,
          "internalType": "string",
          "name": "descriptionIPFSHash",
          "type": "string"
        }
      ],
      "name": "NFTCreated",
      "type": "event"
    },
    {
      "anonymous": false,
      "inputs": [
        {
          "indexed": true,
          "internalType": "uint256",
          "name": "tokenId",
          "type": "uint256"
        },
        {
          "indexed": true,
          "internalType": "address",
          "name": "seller",
          "type": "address"
        },
        {
          "indexed": false,
          "internalType": "uint256",
          "name": "price",
          "type": "uint256"
        }
      ],
      "name": "NFTListed",
      "type": "event"
    },
    {
      "anonymous": false,
      "inputs": [
        {
          "indexed": true,
          "internalType": "uint256",
          "name": "tokenId",
          "type": "uint256"
        },
        {
          "indexed": true,
          "internalType": "address",
          "name": "seller",
          "type": "address"
        },
        {
          "indexed": false,
          "internalType": "uint256",
          "name": "newPrice",
          "type": "uint256"
        }
      ],
      "name": "NFTResold",
      "type": "event"
    },
    {
      "anonymous": false,
      "inputs": [
        {
          "indexed": true,
          "internalType": "uint256",
          "name": "tokenId",
          "type": "uint256"
        },
        {
          "indexed": true,
          "internalType": "address",
          "name": "buyer",
          "type": "address"
        },
        {
          "indexed": true,
          "internalType": "address",
          "name": "seller",
          "type": "address"
        },
        {
          "indexed": false,
          "internalType": "uint256",
          "name": "price",
          "type": "uint256"
        }
      ],
      "name": "NFTSold",
      "type": "event"
    },
    {
      "anonymous": false,
      "inputs": [
        {
          "indexed": true,
          "internalType": "address",
          "name": "previousOwner",
          "type": "address"
        },
        {
          "indexed": true,
          "internalType": "address",
          "name": "newOwner",
          "type": "address"
        }
      ],
      "name": "OwnershipTransferred",
      "type": "event"
    },
    {
      "anonymous": false,
      "inputs": [
        {
          "indexed": true,
          "internalType": "uint256",
          "name": "tokenId",
          "type": "uint256"
        },
        {
          "indexed": false,
          "internalType": "uint256",
          "name": "newRoyaltyBasisPoints",
          "type": "uint256"
        }
      ],
      "name": "RoyaltyUpdated",
      "type": "event"
    },
    {
      "anonymous": false,
      "inputs": [
        {
          "indexed": true,
          "internalType": "uint256",
          "name": "tokenId",
          "type": "uint256"
        },
        {
          "indexed": false,
          "internalType": "uint256",
          "name": "newViewCount",
          "type": "uint256"
        }
      ],
      "name": "ViewIncremented",
      "type": "event"
    },
    {
      "inputs": [
        {
          "internalType": "uint256",
          "name": "_tokenId",
          "type": "uint256"
        },
        {
          "internalType": "string",
          "name": "_content",
          "type": "string"
        },
        {
          "internalType": "uint8",
          "name": "_rating",
          "type": "uint8"
        }
      ],
      "name": "addComment",
      "outputs": [],
      "stateMutability": "nonpayable",
      "type": "function"
    },
    {
      "inputs": [
        {
          "internalType": "uint256",
          "name": "",
          "type": "uint256"
        },
        {
          "internalType": "address",
          "name": "",
          "type": "address"
        }
      ],
      "name": "auctionBids",
      "outputs": [
        {
          "internalType": "uint256",
          "name": "",
          "type": "uint256"
        }
      ],
      "stateMutability": "view",
      "type": "function"
    },
    {
      "inputs": [
        {
          "internalType": "uint256",
          "name": "_tokenId",
          "type": "uint256"
        }
      ],
      "name": "buyNFT",
      "outputs": [],
      "stateMutability": "payable",
      "type": "function"
    },
    {
      "inputs": [
        {
          "internalType": "string",
          "name": "_tokenURI",
          "type": "string"
        },
        {
          "internalType": "string",
          "name": "_category",
          "type": "string"
        },
        {
          "internalType": "string",
          "name": "_collection",
          "type": "string"
        },
        {
          "internalType": "uint256",
          "name": "_royaltyBasisPoints",
          "type": "uint256"
        },
        {
          "internalType": "string",
          "name": "_descriptionIPFSHash",
          "type": "string"
        }
      ],
      "name": "createNFT",
      "outputs": [
        {
          "internalType": "uint256",
          "name": "",
          "type": "uint256"
        }
      ],
      "stateMutability": "payable",
      "type": "function"
    },
    {
      "inputs": [
        {
          "internalType": "uint256",
          "name": "_tokenId",
          "type": "uint256"
        }
      ],
      "name": "endAuction",
      "outputs": [],
      "stateMutability": "nonpayable",
      "type": "function"
    },
    {
      "inputs": [
        {
          "internalType": "uint256",
          "name": "_tokenId",
          "type": "uint256"
        },
        {
          "internalType": "address",
          "name": "_bidder",
          "type": "address"
        }
      ],
      "name": "getAuctionBid",
      "outputs": [
        {
          "internalType": "uint256",
          "name": "",
          "type": "uint256"
        }
      ],
      "stateMutability": "view",
      "type": "function"
    },
    {
      "inputs": [
        {
          "internalType": "uint256",
          "name": "_tokenId",
          "type": "uint256"
        }
      ],
      "name": "getAuctionDetails",
      "outputs": [
        {
          "internalType": "address",
          "name": "seller",
          "type": "address"
        },
        {
          "internalType": "uint256",
          "name": "currentBid",
          "type": "uint256"
        },
        {
          "internalType": "address",
          "name": "highestBidder",
          "type": "address"
        },
        {
          "internalType": "uint256",
          "name": "endTime",
          "type": "uint256"
        },
        {
          "internalType": "bool",
          "name": "started",
          "type": "bool"
        },
        {
          "internalType": "bool",
          "name": "ended",
          "type": "bool"
        }
      ],
      "stateMutability": "view",
      "type": "function"
    },
    {
      "inputs": [
        {
          "internalType": "uint256",
          "name": "_tokenId",
          "type": "uint256"
        }
      ],
      "name": "getComments",
      "outputs": [
        {
          "components": [
            {
              "internalType": "address",
              "name": "commenter",
              "type": "address"
            },
            {
              "internalType": "string",
              "name": "content",
              "type": "string"
            },
            {
              "internalType": "uint8",
              "name": "rating",
              "type": "uint8"
            },
            {
              "internalType": "uint256",
              "name": "timestamp",
              "type": "uint256"
            }
          ],
          "internalType": "struct NFTMarketplace.Comment[]",
          "name": "commentsArray",
          "type": "tuple[]"
        }
      ],
      "stateMutability": "view",
      "type": "function"
    },
    {
      "inputs": [
        {
          "internalType": "uint256",
          "name": "_tokenId",
          "type": "uint256"
        }
      ],
      "name": "getSaleDetails",
      "outputs": [
        {
          "internalType": "address",
          "name": "seller",
          "type": "address"
        },
        {
          "internalType": "uint256",
          "name": "price",
          "type": "uint256"
        },
        {
          "internalType": "bool",
          "name": "isSold",
          "type": "bool"
        }
      ],
      "stateMutability": "view",
      "type": "function"
    },
    {
      "inputs": [
        {
          "internalType": "uint256",
          "name": "_tokenId",
          "type": "uint256"
        }
      ],
      "name": "getTokenExtendedDetails",
      "outputs": [
        {
          "internalType": "string",
          "name": "category",
          "type": "string"
        },
        {
          "internalType": "string",
          "name": "collection",
          "type": "string"
        },
        {
          "internalType": "uint256",
          "name": "royaltyBasisPoints",
          "type": "uint256"
        },
        {
          "internalType": "string",
          "name": "descriptionIPFSHash",
          "type": "string"
        }
      ],
      "stateMutability": "view",
      "type": "function"
    },
    {
      "inputs": [
        {
          "internalType": "uint256",
          "name": "",
          "type": "uint256"
        }
      ],
      "name": "idToAuction",
      "outputs": [
        {
          "internalType": "address payable",
          "name": "seller",
          "type": "address"
        },
        {
          "internalType": "uint256",
          "name": "currentBid",
          "type": "uint256"
        },
        {
          "internalType": "address payable",
          "name": "highestBidder",
          "type": "address"
        },
        {
          "internalType": "uint256",
          "name": "endTime",
          "type": "uint256"
        },
        {
          "internalType": "bool",
          "name": "started",
          "type": "bool"
        },
        {
          "internalType": "bool",
          "name": "ended",
          "type": "bool"
        }
      ],
      "stateMutability": "view",
      "type": "function"
    },
    {
      "inputs": [
        {
          "internalType": "uint256",
          "name": "",
          "type": "uint256"
        }
      ],
      "name": "idToSale",
      "outputs": [
        {
          "internalType": "address payable",
          "name": "seller",
          "type": "address"
        },
        {
          "internalType": "uint256",
          "name": "price",
          "type": "uint256"
        },
        {
          "internalType": "bool",
          "name": "isSold",
          "type": "bool"
        }
      ],
      "stateMutability": "view",
      "type": "function"
    },
    {
      "inputs": [
        {
          "internalType": "uint256",
          "name": "_tokenId",
          "type": "uint256"
        }
      ],
      "name": "incrementView",
      "outputs": [],
      "stateMutability": "nonpayable",
      "type": "function"
    },
    {
      "inputs": [
        {
          "internalType": "uint256",
          "name": "_tokenId",
          "type": "uint256"
        },
        {
          "internalType": "uint256",
          "name": "_price",
          "type": "uint256"
        }
      ],
      "name": "listNFTForSale",
      "outputs": [],
      "stateMutability": "nonpayable",
      "type": "function"
    },
    {
      "inputs": [],
      "name": "listingPrice",
      "outputs": [
        {
          "internalType": "uint256",
          "name": "",
          "type": "uint256"
        }
      ],
      "stateMutability": "view",
      "type": "function"
    },
    {
      "inputs": [],
      "name": "nftContract",
      "outputs": [
        {
          "internalType": "contract MyNFT",
          "name": "",
          "type": "address"
        }
      ],
      "stateMutability": "view",
      "type": "function"
    },
    {
      "inputs": [],
      "name": "owner",
      "outputs": [
        {
          "internalType": "address",
          "name": "",
          "type": "address"
        }
      ],
      "stateMutability": "view",
      "type": "function"
    },
    {
      "inputs": [
        {
          "internalType": "uint256",
          "name": "_tokenId",
          "type": "uint256"
        }
      ],
      "name": "placeBid",
      "outputs": [],
      "stateMutability": "payable",
      "type": "function"
    },
    {
      "inputs": [],
      "name": "renounceOwnership",
      "outputs": [],
      "stateMutability": "nonpayable",
      "type": "function"
    },
    {
      "inputs": [
        {
          "internalType": "uint256",
          "name": "_tokenId",
          "type": "uint256"
        },
        {
          "internalType": "uint256",
          "name": "_newPrice",
          "type": "uint256"
        }
      ],
      "name": "resellNFT",
      "outputs": [],
      "stateMutability": "nonpayable",
      "type": "function"
    },
    {
      "inputs": [
        {
          "internalType": "uint256",
          "name": "_tokenId",
          "type": "uint256"
        },
        {
          "internalType": "uint256",
          "name": "_minBid",
          "type": "uint256"
        },
        {
          "internalType": "uint256",
          "name": "_duration",
          "type": "uint256"
        }
      ],
      "name": "startAuction",
      "outputs": [],
      "stateMutability": "nonpayable",
      "type": "function"
    },
    {
      "inputs": [
        {
          "internalType": "uint256",
          "name": "_tokenId",
          "type": "uint256"
        }
      ],
      "name": "toggleLike",
      "outputs": [],
      "stateMutability": "nonpayable",
      "type": "function"
    },
    {
      "inputs": [
        {
          "internalType": "uint256",
          "name": "",
          "type": "uint256"
        },
        {
          "internalType": "uint256",
          "name": "",
          "type": "uint256"
        }
      ],
      "name": "tokenComments",
      "outputs": [
        {
          "internalType": "address",
          "name": "commenter",
          "type": "address"
        },
        {
          "internalType": "string",
          "name": "content",
          "type": "string"
        },
        {
          "internalType": "uint8",
          "name": "rating",
          "type": "uint8"
        },
        {
          "internalType": "uint256",
          "name": "timestamp",
          "type": "uint256"
        }
      ],
      "stateMutability": "view",
      "type": "function"
    },
    {
      "inputs": [
        {
          "internalType": "uint256",
          "name": "",
          "type": "uint256"
        }
      ],
      "name": "tokenExtendedDetails",
      "outputs": [
        {
          "internalType": "string",
          "name": "category",
          "type": "string"
        },
        {
          "internalType": "string",
          "name": "collection",
          "type": "string"
        },
        {
          "internalType": "uint256",
          "name": "royaltyBasisPoints",
          "type": "uint256"
        },
        {
          "internalType": "string",
          "name": "descriptionIPFSHash",
          "type": "string"
        }
      ],
      "stateMutability": "view",
      "type": "function"
    },
    {
      "inputs": [
        {
          "internalType": "uint256",
          "name": "",
          "type": "uint256"
        }
      ],
      "name": "tokenLikes",
      "outputs": [
        {
          "internalType": "uint256",
          "name": "",
          "type": "uint256"
        }
      ],
      "stateMutability": "view",
      "type": "function"
    },
    {
      "inputs": [
        {
          "internalType": "uint256",
          "name": "",
          "type": "uint256"
        }
      ],
      "name": "tokenViews",
      "outputs": [
        {
          "internalType": "uint256",
          "name": "",
          "type": "uint256"
        }
      ],
      "stateMutability": "view",
      "type": "function"
    },
    {
      "inputs": [
        {
          "internalType": "address",
          "name": "newOwner",
          "type": "address"
        }
      ],
      "name": "transferOwnership",
      "outputs": [],
      "stateMutability": "nonpayable",
      "type": "function"
    },
    {
      "inputs": [
        {
          "internalType": "uint256",
          "name": "_newListingPrice",
          "type": "uint256"
        }
      ],
      "name": "updateListingPrice",
      "outputs": [],
      "stateMutability": "nonpayable",
      "type": "function"
    },
    {
      "inputs": [
        {
          "internalType": "uint256",
          "name": "_tokenId",
          "type": "uint256"
        },
        {
          "internalType": "uint256",
          "name": "_newRoyaltyBasisPoints",
          "type": "uint256"
        }
      ],
      "name": "updateRoyalty",
      "outputs": [],
      "stateMutability": "nonpayable",
      "type": "function"
    },
    {
      "inputs": [],
      "name": "withdrawListingPrice",
      "outputs": [],
      "stateMutability": "nonpayable",
      "type": "function"
    }
  ],
  "bytecode": "0x60806040523480156200001157600080fd5b5060405162005e2838038062005e2883398181016040528101906200003791906200027f565b33600073ffffffffffffffffffffffffffffffffffffffff168173ffffffffffffffffffffffffffffffffffffffff1603620000ad5760006040517f1e4fbdf7000000000000000000000000000000000000000000000000000000008152600401620000a49190620002d7565b60405180910390fd5b620000be816200011660201b60201c565b506001808190555081600260006101000a81548173ffffffffffffffffffffffffffffffffffffffff021916908373ffffffffffffffffffffffffffffffffffffffff160217905550806003819055505050620002f4565b60008060009054906101000a900473ffffffffffffffffffffffffffffffffffffffff169050816000806101000a81548173ffffffffffffffffffffffffffffffffffffffff021916908373ffffffffffffffffffffffffffffffffffffffff1602179055508173ffffffffffffffffffffffffffffffffffffffff168173ffffffffffffffffffffffffffffffffffffffff167f8be0079c531659141344cd1fd0a4f28419497f9722a3daafe3b4186f6b6457e060405160405180910390a35050565b600080fd5b600073ffffffffffffffffffffffffffffffffffffffff82169050919050565b60006200020c82620001df565b9050919050565b6200021e81620001ff565b81146200022a57600080fd5b50565b6000815190506200023e8162000213565b92915050565b6000819050919050565b620002598162000244565b81146200026557600080fd5b50565b60008151905062000279816200024e565b92915050565b60008060408385031215620002995762000298620001da565b5b6000620002a9858286016200022d565b9250506020620002bc8582860162000268565b9150509250929050565b620002d181620001ff565b82525050565b6000602082019050620002ee6000830184620002c6565b92915050565b615b2480620003046000396000f3fe6080604052600436106101cd5760003560e01c8063809e0641116100f7578063ae677aa311610095578063d56d229d11610064578063d56d229d146106a0578063f20e5e35146106cb578063f2fde38b1461070d578063fbe5501514610736576101cd565b8063ae677aa3146105fa578063b2733b3914610623578063b9a2de3a1461064c578063c78f19f914610675576101cd565b80638da5cb5b116100d15780638da5cb5b1461056157806391e078bb1461058c5780639979ef45146105b5578063ac3dfc73146105d1576101cd565b8063809e0641146104ba57806383104680146104e35780638c746d8b14610522576101cd565b806323edf6971161016f57806344b762691161013e57806344b762691461043557806351ed82881461045e57806354398d181461047a578063715018a6146104a3576101cd565b806323edf6971461034e578063320ee2881461038b57806341d5e245146103c857806344a671fd146103f8576101cd565b80631504ceed116101ab5780631504ceed1461027a57806315b92cad146102b75780631b30f5e1146102ce5780631d4ff1681461030e576101cd565b8063089dc92c146101d25780630bf7642e1461021457806313d1c2041461023d575b600080fd5b3480156101de57600080fd5b506101f960048036038101906101f49190613cb4565b610776565b60405161020b96959493929190613d4c565b60405180910390f35b34801561022057600080fd5b5061023b60048036038101906102369190613cb4565b61080c565b005b34801561024957600080fd5b50610264600480360381019061025f9190613cb4565b610883565b6040516102719190613dad565b60405180910390f35b34801561028657600080fd5b506102a1600480360381019061029c9190613e06565b61089b565b6040516102ae9190613dad565b60405180910390f35b3480156102c357600080fd5b506102cc6108c0565b005b3480156102da57600080fd5b506102f560048036038101906102f09190613e46565b6109d7565b6040516103059493929190613f41565b60405180910390f35b34801561031a57600080fd5b5061033560048036038101906103309190613cb4565b610ad9565b6040516103459493929190613f8d565b60405180910390f35b34801561035a57600080fd5b5061037560048036038101906103709190613cb4565b610cbc565b6040516103829190614183565b60405180910390f35b34801561039757600080fd5b506103b260048036038101906103ad9190613cb4565b610e3d565b6040516103bf9190613dad565b60405180910390f35b6103e260048036038101906103dd91906142da565b610e55565b6040516103ef9190613dad565b60405180910390f35b34801561040457600080fd5b5061041f600480360381019061041a9190613e06565b611038565b60405161042c9190613dad565b60405180910390f35b34801561044157600080fd5b5061045c600480360381019061045791906143f1565b611093565b005b61047860048036038101906104739190613cb4565b611242565b005b34801561048657600080fd5b506104a1600480360381019061049c9190613cb4565b611853565b005b3480156104af57600080fd5b506104b86119d5565b005b3480156104c657600080fd5b506104e160048036038101906104dc9190613e46565b6119e9565b005b3480156104ef57600080fd5b5061050a60048036038101906105059190613cb4565b611bcb565b60405161051993929190614460565b60405180910390f35b34801561052e57600080fd5b5061054960048036038101906105449190613cb4565b611c22565b60405161055893929190614497565b60405180910390f35b34801561056d57600080fd5b50610576611c87565b60405161058391906144ce565b60405180910390f35b34801561059857600080fd5b506105b360048036038101906105ae91906144e9565b611cb0565b005b6105cf60048036038101906105ca9190613cb4565b612314565b005b3480156105dd57600080fd5b506105f860048036038101906105f39190613e46565b61278e565b005b34801561060657600080fd5b50610621600480360381019061061c9190613cb4565b612c46565b005b34801561062f57600080fd5b5061064a60048036038101906106459190613e46565b612c8f565b005b34801561065857600080fd5b50610673600480360381019061066e9190613cb4565b613157565b005b34801561068157600080fd5b5061068a6137a0565b6040516106979190613dad565b60405180910390f35b3480156106ac57600080fd5b506106b56137a6565b6040516106c2919061459b565b60405180910390f35b3480156106d757600080fd5b506106f260048036038101906106ed9190613cb4565b6137cc565b604051610704969594939291906145b6565b60405180910390f35b34801561071957600080fd5b50610734600480360381019061072f9190614617565b61387a565b005b34801561074257600080fd5b5061075d60048036038101906107589190613cb4565b613900565b60405161076d9493929190613f8d565b60405180910390f35b60056020528060005260406000206000915090508060000160009054906101000a900473ffffffffffffffffffffffffffffffffffffffff16908060010154908060020160009054906101000a900473ffffffffffffffffffffffffffffffffffffffff16908060030154908060040160009054906101000a900460ff16908060040160019054906101000a900460ff16905086565b60076000828152602001908152602001600020600081548092919061083090614673565b9190505550807fd1f18f8d6461286c8e2ffcd38a02e90cdf774b23af83143e6f6a194013f5459560076000848152602001908152602001600020546040516108789190613dad565b60405180910390a250565b60076020528060005260406000206000915090505481565b6006602052816000526040600020602052806000526040600020600091509150505481565b6108c8613ac8565b6108d0613b4f565b600047905060008111610918576040517f08c379a000000000000000000000000000000000000000000000000000000000815260040161090f90614707565b60405180910390fd5b6000610922611c87565b73ffffffffffffffffffffffffffffffffffffffff168260405161094590614758565b60006040518083038185875af1925050503d8060008114610982576040519150601f19603f3d011682016040523d82523d6000602084013e610987565b606091505b50509050806109cb576040517f08c379a00000000000000000000000000000000000000000000000000000000081526004016109c2906147b9565b60405180910390fd5b50506109d5613b95565b565b600960205281600052604060002081815481106109f357600080fd5b9060005260206000209060040201600091509150508060000160009054906101000a900473ffffffffffffffffffffffffffffffffffffffff1690806001018054610a3d90614808565b80601f0160208091040260200160405190810160405280929190818152602001828054610a6990614808565b8015610ab65780601f10610a8b57610100808354040283529160200191610ab6565b820191906000526020600020905b815481529060010190602001808311610a9957829003601f168201915b5050505050908060020160009054906101000a900460ff16908060030154905084565b606080600060606000600a600087815260200190815260200160002090508060000181600101826002015483600301838054610b1490614808565b80601f0160208091040260200160405190810160405280929190818152602001828054610b4090614808565b8015610b8d5780601f10610b6257610100808354040283529160200191610b8d565b820191906000526020600020905b815481529060010190602001808311610b7057829003601f168201915b50505050509350828054610ba090614808565b80601f0160208091040260200160405190810160405280929190818152602001828054610bcc90614808565b8015610c195780601f10610bee57610100808354040283529160200191610c19565b820191906000526020600020905b815481529060010190602001808311610bfc57829003601f168201915b50505050509250808054610c2c90614808565b80601f0160208091040260200160405190810160405280929190818152602001828054610c5890614808565b8015610ca55780601f10610c7a57610100808354040283529160200191610ca5565b820191906000526020600020905b815481529060010190602001808311610c8857829003601f168201915b505050505090509450945094509450509193509193565b606060096000838152602001908152602001600020805480602002602001604051908101604052809291908181526020016000905b82821015610e3257838290600052602060002090600402016040518060800160405290816000820160009054906101000a900473ffffffffffffffffffffffffffffffffffffffff1673ffffffffffffffffffffffffffffffffffffffff1673ffffffffffffffffffffffffffffffffffffffff168152602001600182018054610d7a90614808565b80601f0160208091040260200160405190810160405280929190818152602001828054610da690614808565b8015610df35780601f10610dc857610100808354040283529160200191610df3565b820191906000526020600020905b815481529060010190602001808311610dd657829003601f168201915b505050505081526020016002820160009054906101000a900460ff1660ff1660ff16815260200160038201548152505081526020019060010190610cf1565b505050509050919050565b60086020528060005260406000206000915090505481565b6000610e5f613b4f565b6003543414610ea3576040517f08c379a0000000000000000000000000000000000000000000000000000000008152600401610e9a90614885565b60405180910390fd5b6000600260009054906101000a900473ffffffffffffffffffffffffffffffffffffffff1673ffffffffffffffffffffffffffffffffffffffff1663d01f7a873389306040518463ffffffff1660e01b8152600401610f04939291906148a5565b6020604051808303816000875af1158015610f23573d6000803e3d6000fd5b505050506040513d601f19601f82011682018060405250810190610f4791906148f8565b9050604051806080016040528087815260200186815260200185815260200184815250600a60008381526020019081526020016000206000820151816000019081610f929190614ac7565b506020820151816001019081610fa89190614ac7565b50604082015181600201556060820151816003019081610fc89190614ac7565b509050503373ffffffffffffffffffffffffffffffffffffffff16817f3502c162367d4fa79cf3148ae0275fb7d6186c17481dceebcd7b7b061feb791d898989898960405161101b959493929190614b99565b60405180910390a38091505061102f613b95565b95945050505050565b60006006600084815260200190815260200160002060008373ffffffffffffffffffffffffffffffffffffffff1673ffffffffffffffffffffffffffffffffffffffff16815260200190815260200160002054905092915050565b60018160ff16101580156110ab575060058160ff1611155b6110ea576040517f08c379a00000000000000000000000000000000000000000000000000000000081526004016110e190614c54565b60405180910390fd5b6009600084815260200190815260200160002060405180608001604052803373ffffffffffffffffffffffffffffffffffffffff1681526020018481526020018360ff16815260200142815250908060018154018082558091505060019003906000526020600020906004020160009091909190915060008201518160000160006101000a81548173ffffffffffffffffffffffffffffffffffffffff021916908373ffffffffffffffffffffffffffffffffffffffff16021790555060208201518160010190816111bc9190614ac7565b5060408201518160020160006101000a81548160ff021916908360ff1602179055506060820151816003015550503373ffffffffffffffffffffffffffffffffffffffff16837ff6b1839909a858632cb2f32318eece2d610c91cfacceb753f9cfc2b5c2325d9884844260405161123593929190614c74565b60405180910390a3505050565b61124a613b4f565b6000600460008381526020019081526020016000209050600073ffffffffffffffffffffffffffffffffffffffff168160000160009054906101000a900473ffffffffffffffffffffffffffffffffffffffff1673ffffffffffffffffffffffffffffffffffffffff16036112f4576040517f08c379a00000000000000000000000000000000000000000000000000000000081526004016112eb90614cfe565b60405180910390fd5b8060020160009054906101000a900460ff1615611346576040517f08c379a000000000000000000000000000000000000000000000000000000000815260040161133d90614d6a565b60405180910390fd5b8060010154341461138c576040517f08c379a000000000000000000000000000000000000000000000000000000000815260040161138390614dd6565b60405180910390fd5b3373ffffffffffffffffffffffffffffffffffffffff168160000160009054906101000a900473ffffffffffffffffffffffffffffffffffffffff1673ffffffffffffffffffffffffffffffffffffffff160361141e576040517f08c379a000000000000000000000000000000000000000000000000000000000815260040161141590614e42565b60405180910390fd5b600260009054906101000a900473ffffffffffffffffffffffffffffffffffffffff1673ffffffffffffffffffffffffffffffffffffffff166323b872dd8260000160009054906101000a900473ffffffffffffffffffffffffffffffffffffffff1633856040518463ffffffff1660e01b81526004016114a193929190614e83565b600060405180830381600087803b1580156114bb57600080fd5b505af11580156114cf573d6000803e3d6000fd5b505050506000600a6000848152602001908152602001600020905060006127108260020154346114ff9190614eba565b6115099190614f2b565b9050600081346115199190614f5c565b90506000600260009054906101000a900473ffffffffffffffffffffffffffffffffffffffff1673ffffffffffffffffffffffffffffffffffffffff16636352211e876040518263ffffffff1660e01b81526004016115789190613dad565b602060405180830381865afa158015611595573d6000803e3d6000fd5b505050506040513d601f19601f820116820180604052508101906115b99190614fa5565b905060008311156116725760008173ffffffffffffffffffffffffffffffffffffffff16846040516115ea90614758565b60006040518083038185875af1925050503d8060008114611627576040519150601f19603f3d011682016040523d82523d6000602084013e61162c565b606091505b5050905080611670576040517f08c379a00000000000000000000000000000000000000000000000000000000081526004016116679061501e565b60405180910390fd5b505b60008560000160009054906101000a900473ffffffffffffffffffffffffffffffffffffffff1673ffffffffffffffffffffffffffffffffffffffff16836040516116bc90614758565b60006040518083038185875af1925050503d80600081146116f9576040519150601f19603f3d011682016040523d82523d6000602084013e6116fe565b606091505b5050905080611742576040517f08c379a00000000000000000000000000000000000000000000000000000000081526004016117399061508a565b60405180910390fd5b60018660020160006101000a81548160ff02191690831515021790555060046000888152602001908152602001600020600080820160006101000a81549073ffffffffffffffffffffffffffffffffffffffff021916905560018201600090556002820160006101000a81549060ff021916905550508560000160009054906101000a900473ffffffffffffffffffffffffffffffffffffffff1673ffffffffffffffffffffffffffffffffffffffff163373ffffffffffffffffffffffffffffffffffffffff16887f8562eb94748e30bb0071e932744ce902b460c683474fcb3bfd567ffa16b1afb23460405161183a9190613dad565b60405180910390a4505050505050611850613b95565b50565b600b600082815260200190815260200160002060003373ffffffffffffffffffffffffffffffffffffffff1673ffffffffffffffffffffffffffffffffffffffff16815260200190815260200160002060009054906101000a900460ff16611997576008600082815260200190815260200160002060008154809291906118d990614673565b91905055506001600b600083815260200190815260200160002060003373ffffffffffffffffffffffffffffffffffffffff1673ffffffffffffffffffffffffffffffffffffffff16815260200190815260200160002060006101000a81548160ff021916908315150217905550807fe9d4a20302ebcb265f45111b72392c5f903178a09f6b6ba3227e80509c6e56d8600860008481526020019081526020016000205460405161198a9190613dad565b60405180910390a26119d2565b6040517f08c379a00000000000000000000000000000000000000000000000000000000081526004016119c9906150f6565b60405180910390fd5b50565b6119dd613ac8565b6119e76000613b9e565b565b3373ffffffffffffffffffffffffffffffffffffffff16600260009054906101000a900473ffffffffffffffffffffffffffffffffffffffff1673ffffffffffffffffffffffffffffffffffffffff16636352211e846040518263ffffffff1660e01b8152600401611a5b9190613dad565b602060405180830381865afa158015611a78573d6000803e3d6000fd5b505050506040513d601f19601f82011682018060405250810190611a9c9190614fa5565b73ffffffffffffffffffffffffffffffffffffffff161480611af057503373ffffffffffffffffffffffffffffffffffffffff16611ad8611c87565b73ffffffffffffffffffffffffffffffffffffffff16145b611b2f576040517f08c379a0000000000000000000000000000000000000000000000000000000008152600401611b2690615188565b60405180910390fd5b612710811115611b74576040517f08c379a0000000000000000000000000000000000000000000000000000000008152600401611b6b906151f4565b60405180910390fd5b80600a600084815260200190815260200160002060020181905550817f54e506cda8889617ec187c699f1c3b373053eb5796248194796f7e1501dfab2482604051611bbf9190613dad565b60405180910390a25050565b60046020528060005260406000206000915090508060000160009054906101000a900473ffffffffffffffffffffffffffffffffffffffff16908060010154908060020160009054906101000a900460ff16905083565b6000806000806004600086815260200190815260200160002090508060000160009054906101000a900473ffffffffffffffffffffffffffffffffffffffff1681600101548260020160009054906101000a900460ff16935093509350509193909250565b60008060009054906101000a900473ffffffffffffffffffffffffffffffffffffffff16905090565b611cb8613b4f565b3373ffffffffffffffffffffffffffffffffffffffff16600260009054906101000a900473ffffffffffffffffffffffffffffffffffffffff1673ffffffffffffffffffffffffffffffffffffffff16636352211e856040518263ffffffff1660e01b8152600401611d2a9190613dad565b602060405180830381865afa158015611d47573d6000803e3d6000fd5b505050506040513d601f19601f82011682018060405250810190611d6b9190614fa5565b73ffffffffffffffffffffffffffffffffffffffff1614611dc1576040517f08c379a0000000000000000000000000000000000000000000000000000000008152600401611db890615286565b60405180910390fd5b3073ffffffffffffffffffffffffffffffffffffffff16600260009054906101000a900473ffffffffffffffffffffffffffffffffffffffff1673ffffffffffffffffffffffffffffffffffffffff1663081812fc856040518263ffffffff1660e01b8152600401611e339190613dad565b602060405180830381865afa158015611e50573d6000803e3d6000fd5b505050506040513d601f19601f82011682018060405250810190611e749190614fa5565b73ffffffffffffffffffffffffffffffffffffffff1614611eca576040517f08c379a0000000000000000000000000000000000000000000000000000000008152600401611ec190615318565b60405180910390fd5b60008211611f0d576040517f08c379a0000000000000000000000000000000000000000000000000000000008152600401611f04906153aa565b60405180910390fd5b60008111611f50576040517f08c379a0000000000000000000000000000000000000000000000000000000008152600401611f479061543c565b60405180910390fd5b6005600084815260200190815260200160002060040160009054906101000a900460ff1615611fb4576040517f08c379a0000000000000000000000000000000000000000000000000000000008152600401611fab906154ce565b60405180910390fd5b600073ffffffffffffffffffffffffffffffffffffffff166004600085815260200190815260200160002060000160009054906101000a900473ffffffffffffffffffffffffffffffffffffffff1673ffffffffffffffffffffffffffffffffffffffff16148061204557506004600084815260200190815260200160002060020160009054906101000a900460ff165b612084576040517f08c379a000000000000000000000000000000000000000000000000000000000815260040161207b90615560565b60405180910390fd5b6040518060c001604052803373ffffffffffffffffffffffffffffffffffffffff168152602001838152602001600073ffffffffffffffffffffffffffffffffffffffff16815260200182426120da9190615580565b8152602001600115158152602001600015158152506005600085815260200190815260200160002060008201518160000160006101000a81548173ffffffffffffffffffffffffffffffffffffffff021916908373ffffffffffffffffffffffffffffffffffffffff1602179055506020820151816001015560408201518160020160006101000a81548173ffffffffffffffffffffffffffffffffffffffff021916908373ffffffffffffffffffffffffffffffffffffffff1602179055506060820151816003015560808201518160040160006101000a81548160ff02191690831515021790555060a08201518160040160016101000a81548160ff021916908315150217905550905050600073ffffffffffffffffffffffffffffffffffffffff166004600085815260200190815260200160002060000160009054906101000a900473ffffffffffffffffffffffffffffffffffffffff1673ffffffffffffffffffffffffffffffffffffffff16146122ab5760046000848152602001908152602001600020600080820160006101000a81549073ffffffffffffffffffffffffffffffffffffffff021916905560018201600090556002820160006101000a81549060ff021916905550505b3373ffffffffffffffffffffffffffffffffffffffff16837fbf6dc7bdf2f23af5a506fe03ee1221f47d023a2227fbc949c6b812ae44534e6d8484426122f19190615580565b6040516122ff9291906155b4565b60405180910390a361230f613b95565b505050565b61231c613b4f565b60006005600083815260200190815260200160002090508060040160009054906101000a900460ff16612384576040517f08c379a000000000000000000000000000000000000000000000000000000000815260040161237b90615629565b60405180910390fd5b8060040160019054906101000a900460ff16156123d6576040517f08c379a00000000000000000000000000000000000000000000000000000000081526004016123cd90615695565b60405180910390fd5b8060030154421061241c576040517f08c379a000000000000000000000000000000000000000000000000000000000815260040161241390615695565b60405180910390fd5b8060000160009054906101000a900473ffffffffffffffffffffffffffffffffffffffff1673ffffffffffffffffffffffffffffffffffffffff163373ffffffffffffffffffffffffffffffffffffffff16036124ae576040517f08c379a00000000000000000000000000000000000000000000000000000000081526004016124a590615701565b60405180910390fd5b806001015434116124f4576040517f08c379a00000000000000000000000000000000000000000000000000000000081526004016124eb90615793565b60405180910390fd5b600073ffffffffffffffffffffffffffffffffffffffff168160020160009054906101000a900473ffffffffffffffffffffffffffffffffffffffff1673ffffffffffffffffffffffffffffffffffffffff16146126925760008160020160009054906101000a900473ffffffffffffffffffffffffffffffffffffffff1673ffffffffffffffffffffffffffffffffffffffff166006600085815260200190815260200160002060008460020160009054906101000a900473ffffffffffffffffffffffffffffffffffffffff1673ffffffffffffffffffffffffffffffffffffffff1673ffffffffffffffffffffffffffffffffffffffff1681526020019081526020016000205460405161260a90614758565b60006040518083038185875af1925050503d8060008114612647576040519150601f19603f3d011682016040523d82523d6000602084013e61264c565b606091505b5050905080612690576040517f08c379a0000000000000000000000000000000000000000000000000000000008152600401612687906157ff565b60405180910390fd5b505b348160010181905550338160020160006101000a81548173ffffffffffffffffffffffffffffffffffffffff021916908373ffffffffffffffffffffffffffffffffffffffff160217905550346006600084815260200190815260200160002060003373ffffffffffffffffffffffffffffffffffffffff1673ffffffffffffffffffffffffffffffffffffffff168152602001908152602001600020819055503373ffffffffffffffffffffffffffffffffffffffff16827f0e54eff26401bf69b81b26f60bd85ef47f5d85275c1d268d84f68d6897431c473460405161277a9190613dad565b60405180910390a35061278b613b95565b50565b600081116127d1576040517f08c379a00000000000000000000000000000000000000000000000000000000081526004016127c89061586b565b60405180910390fd5b3373ffffffffffffffffffffffffffffffffffffffff16600260009054906101000a900473ffffffffffffffffffffffffffffffffffffffff1673ffffffffffffffffffffffffffffffffffffffff16636352211e846040518263ffffffff1660e01b81526004016128439190613dad565b602060405180830381865afa158015612860573d6000803e3d6000fd5b505050506040513d601f19601f820116820180604052508101906128849190614fa5565b73ffffffffffffffffffffffffffffffffffffffff16146128da576040517f08c379a00000000000000000000000000000000000000000000000000000000081526004016128d190615286565b60405180910390fd5b3073ffffffffffffffffffffffffffffffffffffffff16600260009054906101000a900473ffffffffffffffffffffffffffffffffffffffff1673ffffffffffffffffffffffffffffffffffffffff1663081812fc846040518263ffffffff1660e01b815260040161294c9190613dad565b602060405180830381865afa158015612969573d6000803e3d6000fd5b505050506040513d601f19601f8201168201806040525081019061298d9190614fa5565b73ffffffffffffffffffffffffffffffffffffffff16146129e3576040517f08c379a00000000000000000000000000000000000000000000000000000000081526004016129da90615318565b60405180910390fd5b6005600083815260200190815260200160002060040160019054906101000a900460ff1680612a3357506005600083815260200190815260200160002060040160009054906101000a900460ff16155b612a72576040517f08c379a0000000000000000000000000000000000000000000000000000000008152600401612a69906158fd565b60405180910390fd5b60405180606001604052803373ffffffffffffffffffffffffffffffffffffffff168152602001828152602001600015158152506004600084815260200190815260200160002060008201518160000160006101000a81548173ffffffffffffffffffffffffffffffffffffffff021916908373ffffffffffffffffffffffffffffffffffffffff1602179055506020820151816001015560408201518160020160006101000a81548160ff0219169083151502179055509050506005600083815260200190815260200160002060040160009054906101000a900460ff1615612bf35760056000838152602001908152602001600020600080820160006101000a81549073ffffffffffffffffffffffffffffffffffffffff021916905560018201600090556002820160006101000a81549073ffffffffffffffffffffffffffffffffffffffff021916905560038201600090556004820160006101000a81549060ff02191690556004820160016101000a81549060ff021916905550505b3373ffffffffffffffffffffffffffffffffffffffff16827fae3561baf629f6ef13f993e8899f1e41b772f13626bcd7d16e5d3e590ae207b583604051612c3a9190613dad565b60405180910390a35050565b612c4e613ac8565b806003819055507f661c8d2e494b21e778d6b19ffb42ca00ee63062be7f9eb28af0850e01a9cf21481604051612c849190613dad565b60405180910390a150565b612c97613b4f565b60008111612cda576040517f08c379a0000000000000000000000000000000000000000000000000000000008152600401612cd190615969565b60405180910390fd5b3373ffffffffffffffffffffffffffffffffffffffff16600260009054906101000a900473ffffffffffffffffffffffffffffffffffffffff1673ffffffffffffffffffffffffffffffffffffffff16636352211e846040518263ffffffff1660e01b8152600401612d4c9190613dad565b602060405180830381865afa158015612d69573d6000803e3d6000fd5b505050506040513d601f19601f82011682018060405250810190612d8d9190614fa5565b73ffffffffffffffffffffffffffffffffffffffff1614612de3576040517f08c379a0000000000000000000000000000000000000000000000000000000008152600401612dda90615286565b60405180910390fd5b3073ffffffffffffffffffffffffffffffffffffffff16600260009054906101000a900473ffffffffffffffffffffffffffffffffffffffff1673ffffffffffffffffffffffffffffffffffffffff1663081812fc846040518263ffffffff1660e01b8152600401612e559190613dad565b602060405180830381865afa158015612e72573d6000803e3d6000fd5b505050506040513d601f19601f82011682018060405250810190612e969190614fa5565b73ffffffffffffffffffffffffffffffffffffffff1614612eec576040517f08c379a0000000000000000000000000000000000000000000000000000000008152600401612ee390615318565b60405180910390fd5b6005600083815260200190815260200160002060040160019054906101000a900460ff1680612f3c57506005600083815260200190815260200160002060040160009054906101000a900460ff16155b612f7b576040517f08c379a0000000000000000000000000000000000000000000000000000000008152600401612f72906158fd565b60405180910390fd5b60405180606001604052803373ffffffffffffffffffffffffffffffffffffffff168152602001828152602001600015158152506004600084815260200190815260200160002060008201518160000160006101000a81548173ffffffffffffffffffffffffffffffffffffffff021916908373ffffffffffffffffffffffffffffffffffffffff1602179055506020820151816001015560408201518160020160006101000a81548160ff0219169083151502179055509050506005600083815260200190815260200160002060040160009054906101000a900460ff16156130fc5760056000838152602001908152602001600020600080820160006101000a81549073ffffffffffffffffffffffffffffffffffffffff021916905560018201600090556002820160006101000a81549073ffffffffffffffffffffffffffffffffffffffff021916905560038201600090556004820160006101000a81549060ff02191690556004820160016101000a81549060ff021916905550505b3373ffffffffffffffffffffffffffffffffffffffff16827f5f9c03de076f5063cd3ebcfe8ef7aa8af378e4b35a83c77ba9777e97083879a2836040516131439190613dad565b60405180910390a3613153613b95565b5050565b61315f613b4f565b60006005600083815260200190815260200160002090508060040160009054906101000a900460ff166131c7576040517f08c379a00000000000000000000000000000000000000000000000000000000081526004016131be90615629565b60405180910390fd5b8060040160019054906101000a900460ff1615613219576040517f08c379a0000000000000000000000000000000000000000000000000000000008152600401613210906159d5565b60405180910390fd5b8060030154421015613260576040517f08c379a000000000000000000000000000000000000000000000000000000000815260040161325790615a41565b60405180910390fd5b60018160040160016101000a81548160ff021916908315150217905550600073ffffffffffffffffffffffffffffffffffffffff168160020160009054906101000a900473ffffffffffffffffffffffffffffffffffffffff1673ffffffffffffffffffffffffffffffffffffffff160361332b57600073ffffffffffffffffffffffffffffffffffffffff16827fd2aa34a4fdbbc6dff6a3e56f46e0f3ae2a31d7785ff3487aa5c95c642acea501600060405161331e9190615a9c565b60405180910390a36136f8565b600260009054906101000a900473ffffffffffffffffffffffffffffffffffffffff1673ffffffffffffffffffffffffffffffffffffffff166323b872dd8260000160009054906101000a900473ffffffffffffffffffffffffffffffffffffffff168360020160009054906101000a900473ffffffffffffffffffffffffffffffffffffffff16856040518463ffffffff1660e01b81526004016133d293929190615ab7565b600060405180830381600087803b1580156133ec57600080fd5b505af1158015613400573d6000803e3d6000fd5b505050506000600a600084815260200190815260200160002090506000612710826002015484600101546134349190614eba565b61343e9190614f2b565b905060008184600101546134529190614f5c565b90506000600260009054906101000a900473ffffffffffffffffffffffffffffffffffffffff1673ffffffffffffffffffffffffffffffffffffffff16636352211e876040518263ffffffff1660e01b81526004016134b19190613dad565b602060405180830381865afa1580156134ce573d6000803e3d6000fd5b505050506040513d601f19601f820116820180604052508101906134f29190614fa5565b905060008311156135ab5760008173ffffffffffffffffffffffffffffffffffffffff168460405161352390614758565b60006040518083038185875af1925050503d8060008114613560576040519150601f19603f3d011682016040523d82523d6000602084013e613565565b606091505b50509050806135a9576040517f08c379a00000000000000000000000000000000000000000000000000000000081526004016135a09061501e565b60405180910390fd5b505b60008560000160009054906101000a900473ffffffffffffffffffffffffffffffffffffffff1673ffffffffffffffffffffffffffffffffffffffff16836040516135f590614758565b60006040518083038185875af1925050503d8060008114613632576040519150601f19603f3d011682016040523d82523d6000602084013e613637565b606091505b505090508061367b576040517f08c379a00000000000000000000000000000000000000000000000000000000081526004016136729061508a565b60405180910390fd5b8560020160009054906101000a900473ffffffffffffffffffffffffffffffffffffffff1673ffffffffffffffffffffffffffffffffffffffff16877fd2aa34a4fdbbc6dff6a3e56f46e0f3ae2a31d7785ff3487aa5c95c642acea50188600101546040516136ea9190613dad565b60405180910390a350505050505b60056000838152602001908152602001600020600080820160006101000a81549073ffffffffffffffffffffffffffffffffffffffff021916905560018201600090556002820160006101000a81549073ffffffffffffffffffffffffffffffffffffffff021916905560038201600090556004820160006101000a81549060ff02191690556004820160016101000a81549060ff021916905550505061379d613b95565b50565b60035481565b600260009054906101000a900473ffffffffffffffffffffffffffffffffffffffff1681565b60008060008060008060006005600089815260200190815260200160002090508060000160009054906101000a900473ffffffffffffffffffffffffffffffffffffffff1681600101548260020160009054906101000a900473ffffffffffffffffffffffffffffffffffffffff1683600301548460040160009054906101000a900460ff168560040160019054906101000a900460ff169650965096509650965096505091939550919395565b613882613ac8565b600073ffffffffffffffffffffffffffffffffffffffff168173ffffffffffffffffffffffffffffffffffffffff16036138f45760006040517f1e4fbdf70000000000000000000000000000000000000000000000000000000081526004016138eb91906144ce565b60405180910390fd5b6138fd81613b9e565b50565b600a60205280600052604060002060009150905080600001805461392390614808565b80601f016020809104026020016040519081016040528092919081815260200182805461394f90614808565b801561399c5780601f106139715761010080835404028352916020019161399c565b820191906000526020600020905b81548152906001019060200180831161397f57829003601f168201915b5050505050908060010180546139b190614808565b80601f01602080910402602001604051908101604052809291908181526020018280546139dd90614808565b8015613a2a5780601f106139ff57610100808354040283529160200191613a2a565b820191906000526020600020905b815481529060010190602001808311613a0d57829003601f168201915b505050505090806002015490806003018054613a4590614808565b80601f0160208091040260200160405190810160405280929190818152602001828054613a7190614808565b8015613abe5780601f10613a9357610100808354040283529160200191613abe565b820191906000526020600020905b815481529060010190602001808311613aa157829003601f168201915b5050505050905084565b613ad0613c62565b73ffffffffffffffffffffffffffffffffffffffff16613aee611c87565b73ffffffffffffffffffffffffffffffffffffffff1614613b4d57613b11613c62565b6040517f118cdaa7000000000000000000000000000000000000000000000000000000008152600401613b4491906144ce565b60405180910390fd5b565b600260015403613b8b576040517f3ee5aeb500000000000000000000000000000000000000000000000000000000815260040160405180910390fd5b6002600181905550565b60018081905550565b60008060009054906101000a900473ffffffffffffffffffffffffffffffffffffffff169050816000806101000a81548173ffffffffffffffffffffffffffffffffffffffff021916908373ffffffffffffffffffffffffffffffffffffffff1602179055508173ffffffffffffffffffffffffffffffffffffffff168173ffffffffffffffffffffffffffffffffffffffff167f8be0079c531659141344cd1fd0a4f28419497f9722a3daafe3b4186f6b6457e060405160405180910390a35050565b600033905090565b6000604051905090565b600080fd5b600080fd5b6000819050919050565b613c9181613c7e565b8114613c9c57600080fd5b50565b600081359050613cae81613c88565b92915050565b600060208284031215613cca57613cc9613c74565b5b6000613cd884828501613c9f565b91505092915050565b600073ffffffffffffffffffffffffffffffffffffffff82169050919050565b6000613d0c82613ce1565b9050919050565b613d1c81613d01565b82525050565b613d2b81613c7e565b82525050565b60008115159050919050565b613d4681613d31565b82525050565b600060c082019050613d616000830189613d13565b613d6e6020830188613d22565b613d7b6040830187613d13565b613d886060830186613d22565b613d956080830185613d3d565b613da260a0830184613d3d565b979650505050505050565b6000602082019050613dc26000830184613d22565b92915050565b6000613dd382613ce1565b9050919050565b613de381613dc8565b8114613dee57600080fd5b50565b600081359050613e0081613dda565b92915050565b60008060408385031215613e1d57613e1c613c74565b5b6000613e2b85828601613c9f565b9250506020613e3c85828601613df1565b9150509250929050565b60008060408385031215613e5d57613e5c613c74565b5b6000613e6b85828601613c9f565b9250506020613e7c85828601613c9f565b9150509250929050565b613e8f81613dc8565b82525050565b600081519050919050565b600082825260208201905092915050565b60005b83811015613ecf578082015181840152602081019050613eb4565b60008484015250505050565b6000601f19601f8301169050919050565b6000613ef782613e95565b613f018185613ea0565b9350613f11818560208601613eb1565b613f1a81613edb565b840191505092915050565b600060ff82169050919050565b613f3b81613f25565b82525050565b6000608082019050613f566000830187613e86565b8181036020830152613f688186613eec565b9050613f776040830185613f32565b613f846060830184613d22565b95945050505050565b60006080820190508181036000830152613fa78187613eec565b90508181036020830152613fbb8186613eec565b9050613fca6040830185613d22565b8181036060830152613fdc8184613eec565b905095945050505050565b600081519050919050565b600082825260208201905092915050565b6000819050602082019050919050565b61401c81613dc8565b82525050565b600082825260208201905092915050565b600061403e82613e95565b6140488185614022565b9350614058818560208601613eb1565b61406181613edb565b840191505092915050565b61407581613f25565b82525050565b61408481613c7e565b82525050565b60006080830160008301516140a26000860182614013565b50602083015184820360208601526140ba8282614033565b91505060408301516140cf604086018261406c565b5060608301516140e2606086018261407b565b508091505092915050565b60006140f9838361408a565b905092915050565b6000602082019050919050565b600061411982613fe7565b6141238185613ff2565b93508360208202850161413585614003565b8060005b85811015614171578484038952815161415285826140ed565b945061415d83614101565b925060208a01995050600181019050614139565b50829750879550505050505092915050565b6000602082019050818103600083015261419d818461410e565b905092915050565b600080fd5b600080fd5b7f4e487b7100000000000000000000000000000000000000000000000000000000600052604160045260246000fd5b6141e782613edb565b810181811067ffffffffffffffff82111715614206576142056141af565b5b80604052505050565b6000614219613c6a565b905061422582826141de565b919050565b600067ffffffffffffffff821115614245576142446141af565b5b61424e82613edb565b9050602081019050919050565b82818337600083830152505050565b600061427d6142788461422a565b61420f565b905082815260208101848484011115614299576142986141aa565b5b6142a484828561425b565b509392505050565b600082601f8301126142c1576142c06141a5565b5b81356142d184826020860161426a565b91505092915050565b600080600080600060a086880312156142f6576142f5613c74565b5b600086013567ffffffffffffffff81111561431457614313613c79565b5b614320888289016142ac565b955050602086013567ffffffffffffffff81111561434157614340613c79565b5b61434d888289016142ac565b945050604086013567ffffffffffffffff81111561436e5761436d613c79565b5b61437a888289016142ac565b935050606061438b88828901613c9f565b925050608086013567ffffffffffffffff8111156143ac576143ab613c79565b5b6143b8888289016142ac565b9150509295509295909350565b6143ce81613f25565b81146143d957600080fd5b50565b6000813590506143eb816143c5565b92915050565b60008060006060848603121561440a57614409613c74565b5b600061441886828701613c9f565b935050602084013567ffffffffffffffff81111561443957614438613c79565b5b614445868287016142ac565b9250506040614456868287016143dc565b9150509250925092565b60006060820190506144756000830186613d13565b6144826020830185613d22565b61448f6040830184613d3d565b949350505050565b60006060820190506144ac6000830186613e86565b6144b96020830185613d22565b6144c66040830184613d3d565b949350505050565b60006020820190506144e36000830184613e86565b92915050565b60008060006060848603121561450257614501613c74565b5b600061451086828701613c9f565b935050602061452186828701613c9f565b925050604061453286828701613c9f565b9150509250925092565b6000819050919050565b600061456161455c61455784613ce1565b61453c565b613ce1565b9050919050565b600061457382614546565b9050919050565b600061458582614568565b9050919050565b6145958161457a565b82525050565b60006020820190506145b0600083018461458c565b92915050565b600060c0820190506145cb6000830189613e86565b6145d86020830188613d22565b6145e56040830187613e86565b6145f26060830186613d22565b6145ff6080830185613d3d565b61460c60a0830184613d3d565b979650505050505050565b60006020828403121561462d5761462c613c74565b5b600061463b84828501613df1565b91505092915050565b7f4e487b7100000000000000000000000000000000000000000000000000000000600052601160045260246000fd5b600061467e82613c7e565b91507fffffffffffffffffffffffffffffffffffffffffffffffffffffffffffffffff82036146b0576146af614644565b5b600182019050919050565b7f4e6f2062616c616e636520746f20776974686472617700000000000000000000600082015250565b60006146f1601683613ea0565b91506146fc826146bb565b602082019050919050565b60006020820190508181036000830152614720816146e4565b9050919050565b600081905092915050565b50565b6000614742600083614727565b915061474d82614732565b600082019050919050565b600061476382614735565b9150819050919050565b7f5769746864726177616c206661696c6564000000000000000000000000000000600082015250565b60006147a3601183613ea0565b91506147ae8261476d565b602082019050919050565b600060208201905081810360008301526147d281614796565b9050919050565b7f4e487b7100000000000000000000000000000000000000000000000000000000600052602260045260246000fd5b6000600282049050600182168061482057607f821691505b602082108103614833576148326147d9565b5b50919050565b7f4d75737420706179206c697374696e6720707269636500000000000000000000600082015250565b600061486f601683613ea0565b915061487a82614839565b602082019050919050565b6000602082019050818103600083015261489e81614862565b9050919050565b60006060820190506148ba6000830186613e86565b81810360208301526148cc8185613eec565b90506148db6040830184613e86565b949350505050565b6000815190506148f281613c88565b92915050565b60006020828403121561490e5761490d613c74565b5b600061491c848285016148e3565b91505092915050565b60008190508160005260206000209050919050565b60006020601f8301049050919050565b600082821b905092915050565b6000600883026149877fffffffffffffffffffffffffffffffffffffffffffffffffffffffffffffffff8261494a565b614991868361494a565b95508019841693508086168417925050509392505050565b60006149c46149bf6149ba84613c7e565b61453c565b613c7e565b9050919050565b6000819050919050565b6149de836149a9565b6149f26149ea826149cb565b848454614957565b825550505050565b600090565b614a076149fa565b614a128184846149d5565b505050565b5b81811015614a3657614a2b6000826149ff565b600181019050614a18565b5050565b601f821115614a7b57614a4c81614925565b614a558461493a565b81016020851015614a64578190505b614a78614a708561493a565b830182614a17565b50505b505050565b600082821c905092915050565b6000614a9e60001984600802614a80565b1980831691505092915050565b6000614ab78383614a8d565b9150826002028217905092915050565b614ad082613e95565b67ffffffffffffffff811115614ae957614ae86141af565b5b614af38254614808565b614afe828285614a3a565b600060209050601f831160018114614b315760008415614b1f578287015190505b614b298582614aab565b865550614b91565b601f198416614b3f86614925565b60005b82811015614b6757848901518255600182019150602085019450602081019050614b42565b86831015614b845784890151614b80601f891682614a8d565b8355505b6001600288020188555050505b505050505050565b600060a0820190508181036000830152614bb38188613eec565b90508181036020830152614bc78187613eec565b90508181036040830152614bdb8186613eec565b9050614bea6060830185613d22565b8181036080830152614bfc8184613eec565b90509695505050505050565b7f526174696e67206d757374206265206265747765656e203120616e6420350000600082015250565b6000614c3e601e83613ea0565b9150614c4982614c08565b602082019050919050565b60006020820190508181036000830152614c6d81614c31565b9050919050565b60006060820190508181036000830152614c8e8186613eec565b9050614c9d6020830185613f32565b614caa6040830184613d22565b949350505050565b7f4e4654206973206e6f74206c697374656420666f722073616c65000000000000600082015250565b6000614ce8601a83613ea0565b9150614cf382614cb2565b602082019050919050565b60006020820190508181036000830152614d1781614cdb565b9050919050565b7f4e46542068617320616c7265616479206265656e20736f6c6400000000000000600082015250565b6000614d54601983613ea0565b9150614d5f82614d1e565b602082019050919050565b60006020820190508181036000830152614d8381614d47565b9050919050565b7f506c65617365207375626d6974207468652061736b696e672070726963650000600082015250565b6000614dc0601e83613ea0565b9150614dcb82614d8a565b602082019050919050565b60006020820190508181036000830152614def81614db3565b9050919050565b7f43616e6e6f742062757920796f7572206f776e204e4654000000000000000000600082015250565b6000614e2c601783613ea0565b9150614e3782614df6565b602082019050919050565b60006020820190508181036000830152614e5b81614e1f565b9050919050565b6000614e6d82614568565b9050919050565b614e7d81614e62565b82525050565b6000606082019050614e986000830186614e74565b614ea56020830185613e86565b614eb26040830184613d22565b949350505050565b6000614ec582613c7e565b9150614ed083613c7e565b9250828202614ede81613c7e565b91508282048414831517614ef557614ef4614644565b5b5092915050565b7f4e487b7100000000000000000000000000000000000000000000000000000000600052601260045260246000fd5b6000614f3682613c7e565b9150614f4183613c7e565b925082614f5157614f50614efc565b5b828204905092915050565b6000614f6782613c7e565b9150614f7283613c7e565b9250828203905081811115614f8a57614f89614644565b5b92915050565b600081519050614f9f81613dda565b92915050565b600060208284031215614fbb57614fba613c74565b5b6000614fc984828501614f90565b91505092915050565b7f4661696c656420746f2073656e6420726f79616c747900000000000000000000600082015250565b6000615008601683613ea0565b915061501382614fd2565b602082019050919050565b6000602082019050818103600083015261503781614ffb565b9050919050565b7f4661696c656420746f2073656e642066756e647320746f2073656c6c65720000600082015250565b6000615074601e83613ea0565b915061507f8261503e565b602082019050919050565b600060208201905081810360008301526150a381615067565b9050919050565b7f416c7265616479206c696b65642074686973204e465400000000000000000000600082015250565b60006150e0601683613ea0565b91506150eb826150aa565b602082019050919050565b6000602082019050818103600083015261510f816150d3565b9050919050565b7f4f6e6c79206f726967696e616c2063726561746f72206f72206d61726b65747060008201527f6c616365206f776e65722063616e2075706461746520726f79616c7479000000602082015250565b6000615172603d83613ea0565b915061517d82615116565b604082019050919050565b600060208201905081810360008301526151a181615165565b9050919050565b7f526f79616c74792063616e6e6f74206578636565642031303025000000000000600082015250565b60006151de601a83613ea0565b91506151e9826151a8565b602082019050919050565b6000602082019050818103600083015261520d816151d1565b9050919050565b7f596f7520617265206e6f7420746865206f776e6572206f662074686973204e4660008201527f5400000000000000000000000000000000000000000000000000000000000000602082015250565b6000615270602183613ea0565b915061527b82615214565b604082019050919050565b6000602082019050818103600083015261529f81615263565b9050919050565b7f4d61726b6574706c616365206e6f7420617070726f76656420746f207472616e60008201527f73666572204e4654000000000000000000000000000000000000000000000000602082015250565b6000615302602883613ea0565b915061530d826152a6565b604082019050919050565b60006020820190508181036000830152615331816152f5565b9050919050565b7f4d696e696d756d20626964206d7573742062652067726561746572207468616e60008201527f2030000000000000000000000000000000000000000000000000000000000000602082015250565b6000615394602283613ea0565b915061539f82615338565b604082019050919050565b600060208201905081810360008301526153c381615387565b9050919050565b7f41756374696f6e206475726174696f6e206d757374206265206772656174657260008201527f207468616e203000000000000000000000000000000000000000000000000000602082015250565b6000615426602783613ea0565b9150615431826153ca565b604082019050919050565b6000602082019050818103600083015261545581615419565b9050919050565b7f41756374696f6e20616c7265616479207374617274656420666f72207468697360008201527f204e465400000000000000000000000000000000000000000000000000000000602082015250565b60006154b8602483613ea0565b91506154c38261545c565b604082019050919050565b600060208201905081810360008301526154e7816154ab565b9050919050565b7f4e46542069732063757272656e746c79206c697374656420666f72206469726560008201527f63742073616c6500000000000000000000000000000000000000000000000000602082015250565b600061554a602783613ea0565b9150615555826154ee565b604082019050919050565b600060208201905081810360008301526155798161553d565b9050919050565b600061558b82613c7e565b915061559683613c7e565b92508282019050808211156155ae576155ad614644565b5b92915050565b60006040820190506155c96000830185613d22565b6155d66020830184613d22565b9392505050565b7f41756374696f6e20686173206e6f742073746172746564000000000000000000600082015250565b6000615613601783613ea0565b915061561e826155dd565b602082019050919050565b6000602082019050818103600083015261564281615606565b9050919050565b7f41756374696f6e2068617320656e646564000000000000000000000000000000600082015250565b600061567f601183613ea0565b915061568a82615649565b602082019050919050565b600060208201905081810360008301526156ae81615672565b9050919050565b7f53656c6c65722063616e6e6f7420706c61636520626964730000000000000000600082015250565b60006156eb601883613ea0565b91506156f6826156b5565b602082019050919050565b6000602082019050818103600083015261571a816156de565b9050919050565b7f426964206d75737420626520686967686572207468616e2063757272656e742060008201527f6269640000000000000000000000000000000000000000000000000000000000602082015250565b600061577d602383613ea0565b915061578882615721565b604082019050919050565b600060208201905081810360008301526157ac81615770565b9050919050565b7f4661696c656420746f20726566756e642070726576696f757320626964646572600082015250565b60006157e9602083613ea0565b91506157f4826157b3565b602082019050919050565b60006020820190508181036000830152615818816157dc565b9050919050565b7f4e6577207072696365206d7573742062652067726561746572207468616e2030600082015250565b6000615855602083613ea0565b91506158608261581f565b602082019050919050565b6000602082019050818103600083015261588481615848565b9050919050565b7f4e46542069732063757272656e746c7920696e20616e2061637469766520617560008201527f6374696f6e000000000000000000000000000000000000000000000000000000602082015250565b60006158e7602583613ea0565b91506158f28261588b565b604082019050919050565b60006020820190508181036000830152615916816158da565b9050919050565b7f5072696365206d7573742062652067726561746572207468616e203000000000600082015250565b6000615953601c83613ea0565b915061595e8261591d565b602082019050919050565b6000602082019050818103600083015261598281615946565b9050919050565b7f41756374696f6e2068617320616c726561647920656e64656400000000000000600082015250565b60006159bf601983613ea0565b91506159ca82615989565b602082019050919050565b600060208201905081810360008301526159ee816159b2565b9050919050565b7f41756374696f6e20686173206e6f7420656e6465642079657400000000000000600082015250565b6000615a2b601983613ea0565b9150615a36826159f5565b602082019050919050565b60006020820190508181036000830152615a5a81615a1e565b9050919050565b6000819050919050565b6000615a86615a81615a7c84615a61565b61453c565b613c7e565b9050919050565b615a9681615a6b565b82525050565b6000602082019050615ab16000830184615a8d565b92915050565b6000606082019050615acc6000830186614e74565b615ad96020830185614e74565b615ae66040830184613d22565b94935050505056fea2646970667358221220a78d45180d2c9bae318cbb715f5b401b0475c9470c1eeaf7dfedfb9355affe2264736f6c63430008140033",
  "linkReferences": {},
  "deployedLinkReferences": {}
}